:020000040800F2
:10000000C008002025070008E105000811070008C6
:1000100000000000000000000000000000000000E0
:10002000000000000000000000000000F5070008CC
:10003000000000000000000085070008C11700084C
:1000400029090008290900082909000829090008C8
:1000500029090008290900082909000829090008B8
:1000600029090008290900082909000829090008A8
:100070002909000829090008290900082909000898
:100080002909000829090008290900082909000888
:100090002909000829090008290900082909000878
:1000A0002909000829090008290900082909000868
:1000B00002B4714649084900095C49008E4402BCFB
:1000C0007047C046002934D00123002210B4884272
:1000D0002CD301242407A14204D2814202D2090177
:1000E0001B01F8E7E400A14204D2814202D2490098
:1000F0005B00F8E7884201D3401A1A434C08A0423B
:1001000002D3001B5C0822438C08A04202D3001BD0
:100110009C082243CC08A04202D3001BDC082243E7
:10012000002803D01B0901D00909E3E7100010BC27
:10013000704701B5002000F05FF802BD0029F8D03B
:1001400003B5FFF7C1FF0EBC4243891A1847C046EA
:10015000002941D010B404004C40A44601230022E1
:10016000002900D54942002800D5404288422CD3BE
:1001700001242407A14204D2814202D209011B01B9
:10018000F8E7E400A14204D2814202D249005B00B8
:10019000F8E7884201D3401A1A434C08A04202D320
:1001A000001B5C0822438C08A04202D3001B9C0861
:1001B0002243CC08A04202D3001BDC0822430028C3
:1001C00003D01B0901D00909E3E710006446002CA5
:1001D00000D5404210BC704701B5002000F00CF87B
:1001E00002BDC0460029F7D003B5FFF7B3FF0EBC30
:1001F0004243891A1847C0467047C0461C21012354
:100200001B04984201D3000C10391B0A984201D3F9
:10021000000A08391B09984201D30009043902A2D7
:10022000105C40187047C04604030202010101013E
:100230000000000000000000414208401C21012392
:100240001B04984201D3000C10391B0A984201D3B9
:10025000000A08391B09984201D30009043902A297
:10026000105C401A7047C0461B1C1D1D1E1E1E1E22
:100270001F1F1F1F1F1F1F1F002B11D1002A0FD16F
:10028000002900D1002802D00021C943080007B48A
:10029000024802A14018029003BDC0465DFFFFFF67
:1002A00003B4684601B5029800F04BF8019B9E46E6
:1002B00002B00CBC7047C046084A43081340C01A3D
:1002C0000200074B800818401A40121813099B18A7
:1002D000044A054813405843000E7047555555557C
:1002E000333333330F0F0F0F01010101D0400B00E7
:1002F000D1409C46203AD340184352426346934033
:10030000184370479140030090409C46203A934028
:10031000194352426346D3401943704710B5002930
:1003200003D1FFF76BFF203002E00800FFF766FF04
:1003300010BDC04610B5002802D0FFF77DFF013088
:1003400010BDF0B506000F0015001C0085B08B42F3
:1003500063D801D1824260D821002800FFF7DEFF78
:10036000390000903000FFF7D9FF009B21001B1AD5
:100370001A0028000393FFF7C5FF00900191B942CE
:1003800045D801D1B04242D8009B019C01200021F8
:10039000039AF61AA741FFF7B5FF04000D00039B6F
:1003A000002B2BD0019B009ADB0750081843019BC0
:1003B0005908039B9C46B9422CD801D1B04229D898
:1003C00032003B00121A8B41012692185B41002734
:1003D000B6185F4101235B429C446346002BEAD17F
:1003E00030003900039AFFF781FF039AA4197D4179
:1003F00006000F00FFF786FF241A8D410A9B002B91
:1004000001D01E605F602000290005B0F0BD00240F
:100410000025C4E7B6197F41DCE700240025EDE79D
:1004200010B50348034983681B68984710BDC04650
:10043000E83A00088A3C0008F0B589B02F4C20004B
:1004400003F0E2F8002857D010202169A3680A6859
:1004500082430A608022042120001B689202984790
:10046000002849DB264B1800019303F0CDF8002843
:1004700042D0FFF7D5FF00283EDB03AD1422002158
:10048000280003F024FA02AB0233AB600223EB60D6
:10049000013B6B600B332B74FFF7C2FF012000217F
:1004A00003F07BF901270026019B29009B68019836
:1004B0005B689847002808DB02AB0220185E390011
:1004C000801BFFF745FE8619B6B20137652FEBD1C9
:1004D00031000C4802F048FC802301221B019E429F
:1004E00000D900220421200002F0C3FBFA200021E1
:1004F000400003F052F9D1E709B0F0BDC03A00085E
:10050000E83A0008B43D000810B5024B1B68984754
:1005100010BDC046A8000020014B18607047C046BF
:10052000A800002030B585B004000D001022002185
:10053000684603F0CCF96A4602239370044B2A0004
:1005400021006846019302F02BF905B030BDC0468A
:1005500009050008F7B504000D001E00019201F026
:1005600087FE030003F04EFA054F32003B5001991D
:100570002800A04703F046FA385800F0E7F8C046D4
:1005800008000000802102200A4BC9039A6982B04A
:100590000A439A619A690A4007490192019A4A6896
:1005A000824300204A609A6904490A409A6102B075
:1005B0007047C0460010024000580140FFFFBFFFD7
:1005C0001023044A11680B431360034B034A1A605B
:1005D0007047C04600200240D800002000127A0078
:1005E00010B5034B1B68984700F022F810BDC046B9
:1005F000AC00002030BFFDE7F7B50A4B0A4D0600FE
:10060000EF18CC1B2A0020000849019303F056F98B
:1006100060190021019A03F05AF93800083C746609
:100620000830FEBD0400000000000000843C00080B
:10063000074A9368997B7F2908D85269934205D06D
:100640008023044A5B0551680B4353607047C046E2
:100650004403002000ED00E070B5224B0C005B6805
:1006600088B0DB05DB0D62B6BFF36F8F0025160E79
:100670002900FF2E09D1F33E1640082E05D00100B7
:100680000135120701D5210000250024032B14D1C8
:100690008B69154A934202D3144A934206D3144AF3
:1006A0000024934209D3134A934206D2023B1A888C
:1006B000114B00249A4200D10C682022684603F0B6
:1006C000FDF8079B002D0AD0DA0502D10B4A13432F
:1006D00007936946200002F054FB08B070BD5B0A26
:1006E0005B02F5E700ED00E0B0000008103A0008FA
:1006F000000000200000002002DF0000FF010000D9
:100700000821024A53698B435361704700ED00E0B2
:10071000EFF30880EFF3098101B57246FFF79CFF04
:1007200001BDC04672B607480749401880F30988E2
:10073000EFF314800221084380F31488BFF36F8F16
:1007400002F033FB780300200002000010B50A4BD2
:100750009B6883420DD1EFF30583002B09D08022E3
:10076000064B520559680A435A605A6A04490A40BE
:100770005A6203F029F810BD4403002000ED00E0A8
:10078000FF7FFFFF15498A6815481044EFF3098C75
:10079000F0C043464C4655465E466746F8C072B6C2
:1007A000104F114E4A698A603E60104C141920683F
:1007B0000F4C2060906E00239366002800D162B633
:1007C000074C10191030F8C89846A146AA46B346FF
:1007D000BC462438F0C88CF30988704744030020D5
:1007E0003000000004ED00E000000008640000009C
:1007F0007802002004207146014202D0EFF3098004
:1008000001D1EFF308808169023909780229FFD00C
:1008100001B5724602F0BDFA01BDC04643B2000602
:1008200005D41F221A4001239340014A13607047E8
:1008300000E100E030B5FF2503220B00290040B2A3
:100840000240D20091409B012B40C94393400028B5
:100850000ADBC0240A4A800880008018A4000259DC
:100860000A401343035130BD0F2210400838054A97
:10087000800880008018C26911401943C161F2E705
:1008800000E100E000ED00E010B5203A1360029BAB
:1008900001245360039B06499360049BA143D360EA
:1008A00080235B04D361002391610265836610BDE0
:1008B0005505000870B5094B15009860426E084B4D
:1008C0000E001A602C1C86F309880020054B9847FF
:1008D000201C002100220023034C20474403002059
:1008E00078020020C12D0008550500081022014B98
:1008F0001A61704700ED00E0F0B5C0240022032625
:10090000FF25A40010002F003040C000874005499B
:1009100093089B005B1819590132B94319511C2ADD
:10092000F0D1F0BD00E100E010B5EFF30583054A1A
:10093000103BDB00D118496898588847FFF778FECC
:1009400010BDC046FC3A000810B5024B1B68984722
:10095000002010BD7C020020034B044A18600223D3
:1009600091780B43937070477C020020B000002008
:10097000072310B50449054A99430548521A02F065
:10098000B7F9002010BDC046C708002000100020A5
:100990008002002070B505000024012631002B786C
:1009A0001B19DAB291400A4A50690840884208D1BE
:1009B00008495061DB005A58002A02D0C91849681A
:1009C000904701346B78E4B2A342E7D270BDC046D1
:1009D000000401408C0200200022052010B50C4CC0
:1009E000110020706070FFF725FF00220620110023
:1009F000A070E070FFF71EFF0C220721054802F0EF
:100A000066FF002207201100FFF714FF002010BD31
:100A1000E4000020E800002010B50400FF20002CB6
:100A200005D02000FFF7EAFB1F23181AC0B2044BC1
:100A30001856044B1A6814431C60FFF7EFFE10BDF4
:100A4000E400002000040140024A1368834313605D
:100A50007047C04600040140020000B508000329A9
:100A60000AD80E4BFFF724FB02090C139968914337
:100A70009960D9689143D96000BD99681143F7E73F
:100A8000D9681143D960996891439960F4E79968EE
:100A900011439960D9680A43DA60EDE70004014028
:100AA00070B5FF230D001400002804D0FFF7A6FB4B
:100AB0001F231B1ADBB2094AD8008358AB4203D16B
:100AC00011184968A14204D0002B04D11550121806
:100AD0005460002070BD10204042FBE78C020020D3
:100AE000FF2310B5002804D0FFF788FB1F231B1A33
:100AF000DBB20021024ADB009950D218516010BDD0
:100B00008C020020032310B50F2403409B009C405F
:100B10009940044A8008800080188268A2430A43F2
:100B2000826010BD00000140032303408008054A95
:100B30000230800080580F229B009A401040D8401D
:100B40007047C04600000140836810B5DB0715D52B
:100B5000042483680A49234207D0102382680A408C
:100B60001343836083682342FCD1022382680A40D6
:100B700013438360012382681A42FCD110BDC04632
:100B8000E8FFFF7F70B50C79202223001340144248
:100B900018D10A78082A15D14A78042A12D14C882B
:100BA0004168002C11D0184A94421AD00D00174EFB
:100BB00018355A00AA5A324392B2944206D00133F1
:100BC000082BF6D1162040420AE023000A00283202
:100BD000127852B2012A06D002239A43F2D10020A1
:100BE00070BD0723F2E702690020A6321056441CAC
:100BF00001D09842E6D10720096813704A69824300
:100C000013434B61EBE7C046FF3F000000C0FFFF0E
:100C1000030002009430016890331B689832116021
:100C20005B681968034B8A681A40042313438B607E
:100C30007047C046E8FFFF7FF8B5012583680400D0
:100C40002B4216D10A26056083680A4F3B402B438E
:100C5000836023682B420CD1A3682B4203D1A36885
:100C60003B402B43A3606420013E02F0BEFC002EFB
:100C7000EFD1F8BDE8FFFF7F37B5040043681D687A
:100C80002800FFF761FF63680B4A1B6899681140F1
:100C900018320A439A609A68002AFCDB63680748A6
:100CA00099688368DB68002B01D001AA9847280067
:100CB000FFF7C2FF37BDC046E8FFFF7F703A00086C
:100CC000102270B52B4B1968114200D01A601A68B7
:100CD000520738D5284D1A6C2B68284C991C29606E
:100CE0001A8022002100A5321378A4310133DBB22F
:100CF00013700978994226D100231370636E002B7C
:100D00002FD02200E36F88321288002B06D01C49B6
:100D10001C48984701280CD002281CD02200210032
:100D20008832843113880988994214D90133138099
:100D300003E0230098331B682B60A36F002B03D1C3
:100D40002000FFF765FF70BD0121200002F09DFD2E
:100D50000128F8DDF4E7A36F002B02D00A4802F067
:100D60006EFD0123A6345B422380084800F050FF4B
:100D7000E9E7C04600240140940000200000002064
:100D800064000020E83A000808000020500000201D
:100D9000F0B5456887B02B68040007690293264BBD
:100DA0001800019302F030FC002842D03B000122E1
:100DB000903352421C60DA82666801983368B168E9
:100DC0000393019B9B681B689847002807D1039BEE
:100DD00032691B699B009B081343039A136100212E
:100DE000686905AA02F090FA00281CDB059B002226
:100DF0001979186800F028FA002814DB6B68002BBA
:100E000015D12000FFF738FF029B0C4ADB68134026
:100E1000029AD360BB6C002B03D13800403000F045
:100E2000F7FE002001E0831CE8D007B0F0BD984732
:100E3000E7E713204042F8E7703A00083FF2FFFF6F
:100E40000B8813B50C481B051A0D1B181B0D082B1E
:100E50000ED80A4C486813191A68024300201A6019
:100E60000B881B051B0D1B191B680193019B16BDED
:100E700086204042FBE7C0460000C0FE0010024052
:100E80000B8809481B051A0D1B181B0D082B07D8CA
:100E90000020064B4968D3181A688A431A607047C5
:100EA00086204042FBE7C0460000C0FE0010024022
:100EB00070B50B8814001B051A0D0D001300072ACE
:100EC00027D01C2A25D8154A1549106801229A40B6
:100ED00016000E400A420CD11C210A4211D1862074
:100EE0004042082B0CD100F0F7F8002814D000F095
:100EF000F3F88023206029685B01994203D2002027
:100F000070BD3000F5E7090B0131FFF7DBF8206019
:100F1000F5E786204042F3E70520FBE7D8000020F4
:100F200002001011F8B508880C000005000D02F051
:100F300068F800281EDB6368FF2B1AD0FF22180018
:100F400007261F270C4910404018590B1B0A3B402D
:100F5000314099400568084B8D43056061680A403F
:100F6000D2180B0C090A334039408B4010680343F8
:100F700013600020F8BDC046001002400B880A4AEA
:100F80001B05180D9B1810B51B0D082B08D8074B17
:100F9000C01803684868984343425841013010BD67
:100FA00002F02FF8F8E7C0460000C0FE0010024033
:100FB000F7B5394E00F094F8300002F02BF800F04D
:100FC000C7FC364C364A636835001B061B0FD35CE2
:100FD000D840137801901D41A84202D2280000F0A9
:100FE000DDFC23682F4A13402360802322685B02C4
:100FF0001343236080239B0222681A42FCD00C22F8
:1010000063681340082B16D123680A3A134206D1AD
:10101000012321680B43236023681342FCD0032281
:101020006368934363600C2362681A42FCD1F02228
:10103000636893436360802723681B4ABF0413409F
:10104000236023683B42FCD100F034F880232268FF
:101050005B041343236023683B42FCD0F0226368A7
:1010600093436360032362689A43013B13430C225A
:10107000636063681340082BFBD1019BAB4202D332
:10108000280000F08BFC094B094A1E6063680020B1
:1010900013406360FEBDC046006CDC0200100240DD
:1010A0003C3E0008FFFFFBFFFFFFFFFED8000020D3
:1010B000FFF8FFFF064B074A596811408822520388
:1010C0000A430F215A60DA6A8A43DA627047C046DF
:1010D00000100240FFFFC2FF00487047006CDC02B6
:1010E00080210A4B4905DA6982B00A43DA61DA697C
:1010F0000A4001210192019A9A690A439A619B6907
:101100000B400093009B02B07047C04600100240A5
:1011100010B5084802F078FA002808D0064C2000E4
:10112000FFF71AFC2000FFF7F7F9002010BD13208D
:101130004042FBE7D43A00083D11000870B50400B6
:10114000074D0A2804D1AB680D2128005B68984739
:10115000AB6828005B68E1B29847200070BDC046CC
:10116000D43A0008F7B547681E000369B8680092D2
:1011700001930C0001F036FE8023009A05009B03CA
:101180009A4215D12000BD68FFF7CEFC85420DD1F3
:101190002100280001F026FE0400FFF755FC200086
:1011A000FFF79EFC00212000FFF756FC0020FEBD4B
:1011B0008023009ADB039A4224D08023DB049E42E2
:1011C0001CD0C023DB049E421AD0802316209B042F
:1011D0009E4218D1022628000D49019AFFF760FCB3
:1011E000002812D12000B968FFF78CFC28003100DC
:1011F000FFF732FC2800FFF70FFCD7E70126EAE7EC
:101200000326E8E786204042D1E71020FBE7C046EE
:10121000AD32000870B5036904005860094D28001C
:1012200002F0F2F9002809D06168AB6828001B6859
:101230000C319847002800DD002070BD132040428B
:10124000FBE7C046703A0008F7B504000025C90066
:1012500043180193019B9C4201D1002035E01F27D8
:10126000102223681F40134217D1202562681543BE
:10127000F8215A0949000A40E239FF395B090B405D
:10128000134300931109F02A20D8114B8900CE583E
:10129000002E0AD11320404217E0102F03D0112F47
:1012A000E6D16568E4E73025E2E7300002F0ACF90A
:1012B0000028EFD00F2300992A00194030003B008E
:1012C00002F00DF808340028C4DAFEBD1620E2E76B
:1012D000083D000837B50269436810680C001D68B6
:1012E000D9688368DB68002B0FD001AA98470028D3
:1012F0000BDB2B68054A600813402B60019B210023
:10130000C018FEF7DFFE80B2E86037BDFF7FFFFF49
:1013100043681B68EFF31080012282F310889968FC
:101320009143996080F31088EFF3108182F3108865
:1013300003481A6802401A6081F310887047C0465B
:10134000FFFEFFFFF0B50C00036941685D6823797B
:1013500085B0012B33D09A1E5642724192026679B3
:10136000013E771EBE4176030396A679042E29D04E
:101370005E1EB3411B030193E67900270296012EFE
:1013800001D1C027BF000968A5421ED10C68374EA5
:10139000019B3440224313430B604B68344A134093
:1013A000039A13434B60436832491A6893680B40B1
:1013B0003B4393602968FFF78DFF05B0F0BDC02265
:1013C000D200CCE780235B01D5E7C0230E68DB00A9
:1013D0001E40B24204D00E68274B1E4016430E60DA
:1013E000C0264268039B1168B6014A6832409A429F
:1013F00004D04A681E4E32401A434A608026426832
:10140000019B116876010A683240934204D00A6851
:101410001A4E324013430B60C021436889001A689A
:1014200093680B409F4204D0936812490B403B43A2
:10143000936080224368D2011B689968114206D0EC
:10144000029A032A09D09A680D490A4004E00299D9
:10145000032902D199680A439A6021682B6899424E
:10146000ABD0FFF737FF23682B60A6E7FFE9FFFF4C
:10147000FFCFFFFFFFFCFFFFFFF9FFFFFFEFFFFFC5
:10148000FFBFFFFFF7B543680C001D6803695B6889
:1014900001930A798F79012A0AD149794B1E5A1E84
:1014A0009341C0225B03042F0CD18620404234E0DC
:1014B000022A0FD1042FF8D049794B1E5A1E9341AE
:1014C00080225B03D200002B01D00329EDD1002A3A
:1014D0002FD1EAE749794B1E5E1EB3415B03042F0F
:1014E00021D1002AE1D1002B01D00329DDD1E379FC
:1014F000002B04D0012B1FD1114B9D42D5D10127C8
:101500002B682100BB432B60FFF71CFF00202B68DA
:10151000019E1F432F6006CC06C6FEBD033A012A7A
:10152000C3D90022CFE7002AF8D1002B01D003292C
:10153000BBD1032FDBD0B8E7032BDDD0B5E7C04626
:1015400000380140F0B50600476804694E4885B090
:10155000206002F059F8002802D1132040428EE0AA
:101560002068F96883681B689847002800DA86E0DD
:101570000021386A03AA01F0C7FE00287FDB039B25
:10158000002219791868FFF75FFE002877DB012237
:10159000756833692C685B68019323689343236003
:1015A000686802F031F80028D7D06868A9688368B5
:1015B000DB68002B00D09847EFF31082012383F300
:1015C00010880C2123680B43236082F310883000BD
:1015D0000199FFF7B7FE2B7D002B03D00823A268EB
:1015E0001343A3606B7D002B04D08022636812023A
:1015F00013436360AB7D002B04D0802263685202EA
:1016000013436360EB7D002B04D080226368920259
:10161000134363602B7E002B1FD01C4B9C4230D1A8
:1016200073681A6880239168DB010B43936022681A
:101630006B7E17495B050A40134323602268AB7E2B
:1016400014491B040A4013432360EB7E002B04D093
:101650008022A36812021343A3600123226813436C
:10166000236080239B03E2691A42FCD08023DB03C2
:10167000E2691A42FCD030007B6A9847002005B02E
:10168000F0BD16206AE7C046703A000800380140F5
:10169000FFFF1FFCFFFFE0FFC02210B5802403699D
:1016A000D2005B68E4001B680B6043681B681B6822
:1016B00013400222A34204D01A4A9B185A425341B3
:1016C000DAB20A71C022436892011B685C68032386
:1016D000144200D1023BC0244B714368E4001B68F4
:1016E0001A681B682340D20418D55A425341033369
:1016F000C0228B71436892001B689B6813400A4AA2
:101700009B185A425341DBB2CB714268126892680F
:10171000520400D503230020CB7110BD5A4253411F
:101720000233E5E700FAFFFF00FDFFFF70B58025FB
:101730001049114B8C681B680E6810488A686D024E
:10174000002C08D1002A11D11A002E4209D10068BC
:101750001818801A70BD002A0AD02E4201D1A24268
:10176000F5D90468E41804600968F0E71C00F4E7A0
:101770001A00F2E710E000E04003002034030020EC
:101780000A4A0020136A1B021B0A13629622084BA6
:1017900052011A60074B084A1860084B5A6007222A
:1017A000986019680A431A607047C04600ED00E06F
:1017B0004003002034030020BF12000010E000E0CE
:1017C00070B5FFF7B3FF0C4B0C4A186811680C4C4E
:1017D000401810609621002225681A604901401BBC
:1017E000FEF770FC96235B0143435B19236000F016
:1017F0009FFEFEF71DFF70BD340300203C03002058
:1018000038030020F0B5334D334E85B0002953D056
:10181000431C08D101222B6893432B60FF231B0636
:10182000336005B0F0BD336801930027012848DC20
:10183000EFF31083039372B6FFF778FF0022AB68D3
:101840000293264B1C68264B04191A60254B1B6813
:101850000093E01A90423ADB96235B015F43224AF1
:10186000C01919008018FEF72DFC96235B01584320
:10187000009B1B1B18188023DB00984200D2180025
:101880001A4B984200D91800002330600138A9682B
:101890006860AB60029B02985B1A1A19884202D2F8
:1018A000019A9B181A190D4B1A60039B002BB8D193
:1018B00062B6BFF36F8FB4E733680193431CB4D1B2
:1018C0000B480C4B984200DD1800471EB0E7802003
:1018D000C000D9E710E000E0400300203C030020F6
:1018E0003403002038030020BF12000080E8FF000E
:1018F000A60D0000A70D000070B5EFF3108572B6BD
:10190000084A094B14681B68E41AFFF70FFF001917
:10191000002D02D162B6BFF36F8F96214901FEF709
:10192000D1FB70BD3C0300203803002070B5EFF3FD
:10193000108572B6054B1C68FFF7F8FE2018002DC5
:1019400002D162B6BFF36F8F70BDC0463C0300206A
:101950000C2270B50C4D6B681A40082A11D10F206B
:101960000A499A0C02408C5CEA6ADB0307D50849F5
:101970000240895C0748FEF7A5FB604370BD06483E
:10198000FBE70448FAE7C046001002405C3E00084E
:101990004C3E000800127A0000093D00020010B51C
:1019A0000120002A11D0094B094993429B410A6842
:1019B0005B4282431A430A600C681A000440A34247
:1019C00001D00A6802405A40100010BD00366E0176
:1019D0000020024070B5EFF3108572B6064B9C688C
:1019E00001F023FE002D02D162B6BFF36F8F2000FD
:1019F000FEF7ACFE70BDC0464403002070B50A4E31
:101A000083009D59013084003359AB4200D870BD2A
:101A10006B68002B04D0280001F00AFE0835F3E7BC
:101A20002B689847FAE7C0469C3D0008012270B534
:101A3000244B032086B01A70FFF7E0FF00F0A8FEE9
:101A400001F016FE0420FFF7D9FF1F4C26001F4DA2
:101A5000AC420ED300F01CFBAE4220D300F028FBBA
:101A6000FEF7EAFC01211A4A137B8B43137306B07D
:101A700070BD636A0593236A0493E3690393A369C2
:101A800002936369019323690093E368A268616824
:101A9000206800F015F923685C653034D7E7B26A36
:101AA000F36A511C01D1591C05D01100306819434B
:101AB00003D100F0BBFB3036CEE70649183000F00A
:101AC000C3FCF8E774030020DC3B0008DC3B0008A3
:101AD000780100206537000810B5034A034800214B
:101AE000121A01F0BDFD10BD78030020080100208E
:101AF000C822110070B570260125414304004643F9
:101B0000104886B00918002004950E350395053558
:101B100065430D4B0590029001900C48F6182D1866
:101B20000B4B3000009500F0CBF80422737B2C7433
:101B3000934373730134074B6402E418EE606C60E6
:101B400006B070BD78050020080100204403002085
:101B50007336000878030020F0B5002087B0FFF747
:101B60004DFF224B83F308882149224B0A6A002546
:101B70001A40C0231B0413430B62FEF7C1FDFEF79E
:101B8000B5FE02221C4B1D4EFF329A81B3601D66CA
:101B900001F039FDFEF714FD0120FFF72FFF0220B1
:101BA000FFF72CFF00F0B4FA154C164B7461A0221D
:101BB00005930123144E154904939200330020002D
:101BC000039502950195009500F07AF8042207002C
:101BD000637B20009343637301F08EFD2800FFF7C1
:101BE00087FF320039002000FEF764FE78050020F0
:101BF00000ED00E0FFFF00FFE801002044030020AB
:101C0000780100206C3E00082D1A000840060020D4
:101C100070B5EFF3108572B60468A0421AD0002C9C
:101C200018D062682368002613605A6002222000E0
:101C3000637B2660934363736660A660183001F08F
:101C4000E3FD2000E66601F057FD2900084800F09A
:101C5000F3F970BD8268C3689B1A591E8B419B18AB
:101C60008360002DF5D162B6BFF36F8FF1E7C046F8
:101C70007503002013B50400EFF3108172B680687D
:101C8000002808D00138A060002902D162B6BFF355
:101C90006F8F002016BD1000184307D1002902D114
:101CA00062B6BFF36F8F10204042F3E700920193BA
:101CB0002200024800F098F9ECE7C04675030020C6
:101CC000F0B587B00593030058338365C365109B57
:101CD00007270373042300250732BA434373D2193D
:101CE0000F9BBA4383738B180E0085601900C57370
:101CF0008561C56104000493FEF77EFC049BC01956
:101D0000B8431F1A0E9B3A0002930D9B31000193BA
:101D10000C9B20000093059BFEF7B6FD044B656508
:101D20009B68AB4200D01B6E3800236607B0F0BD45
:101D3000440300200B21084A49429368D9669866FB
:101D4000802306495B05486803434B6062B6BFF3D6
:101D50006F8F9368D86E70474403002000ED00E059
:101D60000D2270B582560500437B002A04DA7F22DB
:101D70001340437301F084FC0D4E0E4AB469B368FE
:101D8000944201D0002C00D1F4689D4208D05A7BC7
:101D9000D20605D1DA897F2A02D9A269002A05D0A4
:101DA0009C4202D0200000F099FA2300736170BDBC
:101DB000440300205C0300200D2370B5C356417B13
:101DC000002B39DBCB0637D18369002B34D180223D
:101DD00052420A431C4C4273A1691C4A914200D0F2
:101DE0000B00E169002B04D1026041600860E061F2
:101DF0000CE00E250E2645579E57B5421DD0AE422B
:101E00001BDD59680360416008605860A569954210
:101E100001D0002D00D1E568A3685A7BD20605D118
:101E2000DA897F2A02D9AA69002A0AD0AB4202D0F5
:101E3000280000F053FA656170BD9942D4D01B6848
:101E4000D0E76361F8E7C046440300205C0300204C
:101E5000F7B5040010270191002A00D0083F637BEA
:101E60003B421FD13B435AB2002A27DB6373082F42
:101E70002BD00023324E0093B569324B9D4201D0E6
:101E8000002D00D1F568B368AB4202D0280000F005
:101E900025FA7561102F40D1BFF35F8F6022637BFD
:101EA00093436373264B9B689C4241D1EFF30583B8
:101EB000002B3DD10198FFF73DFFF7BD7F22134076
:101EC0002000637301F0DCFBD1E7A368002B02D094
:101ED000200001F0DDFB20002600183001F094FC0A
:101EE0005836A56DAE4201D0002D09D1144B9B6828
:101EF0009C42BED1EFF305835A1E9341DBB2B9E792
:101F0000280001F0C5FB2800183001F07DFC0023FB
:101F10002800EB66FFF750FFE3E7009B002BBBD0E8
:101F20000222094BFF329A810022B3601A66B3E79E
:101F3000019B002BC1D162B6BFF36F8FBDE7C046D6
:101F4000440300205C030020E80100200D2270B54E
:101F500082560400437B002A04DA7F221340437335
:101F600001F08EFB8023627B5B4213431C4D637345
:101F7000AB691C4A934200D10023E969002B04D1CC
:101F8000226061600C60EC610CE00E200E26205691
:101F90009E57B04220D086421EDD596823606160A2
:101FA0000C605C60AE69AB68964201D0002E00D137
:101FB000EE689C4208D05A7BD20605D1DA897F2A86
:101FC00002D9B269002A05D09E4202D0300000F04A
:101FD00085F933006B6170BD9942D1D01B68CDE7A4
:101FE000440300205C030020F7B5009111000F4A64
:101FF0000F4B9068089E099D1860EFF3108372B62E
:10200000370094680195200001F04DFB013702D1A3
:102010002B00013306D0200032002B000549183078
:1020200000F012FA0098FFF785FEFEBD4403002081
:10203000640300206537000810B500290AD1EFF3CA
:102040000580002807D1064B9A685B699A4202D046
:10205000FFF770FE10BD62B6BFF36F8FFAE7C046A0
:102060004403002010B500280AD1EFF305800028B2
:1020700007D1064B5A699B689A4202D0FFF75AFE75
:1020800010BD62B6BFF36F8FFAE7C046440300206D
:10209000EFF3108172B6054B9A68D37B013BD37383
:1020A000002902D162B6BFF36F8F7047440300204E
:1020B00070B5EFF3108672B6134DAB68DA7B013260
:1020C000DA73AC69114A944201D0002C00D1EC685B
:1020D0005A7BD20605D1DA897F2A02D9A269002A61
:1020E00005D09C4202D0200000F0F8F823006B617C
:1020F000002E02D162B6BFF36F8FEFF3108072B67D
:10210000FFF7B0FF70BDC046440300205C03002011
:10211000024B034A9A61DA617047C04644030020CB
:102120005C030020F8B5EFF3108572B67F221E4CD9
:10213000A068437B1340437301F0A2FA8022A36896
:102140005242597B0A435A73A26918498A4200D104
:102150000022E069002A04D1196058600360E3613D
:102160000CE00E260E279E57D757BE4217D0B74217
:1021700015DD50681A60586003605360A6698E428E
:1021800001D0002E00D1E668A3689E4202D0300044
:1021900000F0A4F828006661FFF7CCFDF8BD82428C
:1021A000DAD01268D6E7C046440300205C03002062
:1021B000F7B5060004000D000E4303D1FFF7B2FF90
:1021C0003000FEBD4B1C26DB4B1C01D1831C22D3EF
:1021D00001F02DFB0719EFF31083019372B6104E37
:1021E000104BB0681860FFF7BBFDB06822002B00F1
:1021F0000D49183000F028F90423B2680198517B8A
:102200000B435373FFF796FD01F011FB381AC343DC
:10221000DB171840D5E702277F423F1BDBE7C046AC
:1022200044030020640300206537000870B50400F3
:10223000183001F0E9FAEFF3108572B60422637BDF
:10224000134205D1002D02D162B6BFF36F8F70BD6E
:10225000934320006373FFF7AFFDEFF30583002B7B
:10226000F0D129000148FFF7E7FEF0E775030020F1
:10227000014B98687047C046440300200121044B7D
:10228000044AC01A044BC0104343D1547047C0469F
:102290005802002075030020ABAAAAAAC289030035
:1022A00000207F2A11D80A4A106800280DD00E217C
:1022B000084A595612680020914206DB5A7BD20622
:1022C00003D10548181A431E98410123184070474E
:1022D0006C030020680300200801002070B518245A
:1022E0000C4B05001E7C0C4B7443E418200001F0DD
:1022F0008BFA0022094B28009A55FFF7CFFF0028E0
:1023000007D0074B20001A680649013AD31700F09E
:102310009BF870BD44030020580200207503002084
:102320006C0300207D22000870B5EFF3108572B6B3
:10233000104A114B94681868A04207D1FFF7CEFFEE
:10234000002D02D162B6BFF36F8F70BD00211960FE
:10235000127C0A4B9B5C8B42F2D02000FFF79EFF61
:102360000028EDD0637BDB0602D12000FFF7EEFDF5
:102370002000E3E7440300206403002075030020ED
:102380000648074A10B5121A064901F06DF9064AC7
:1023900006480749121A01F067F910BD0000002035
:1023A00002010020BC3E00080000002000000020C8
:1023B000BC3E0008002010B5034B1B68834201D1CE
:1023C000FFF79AFA10BDC0467003002030B5002810
:1023D0000ED00B4B5B6898420AD00168002907D0E9
:1023E0000A694B690469456912196B410A614B61BD
:1023F0000368426813605A6000230360436030BD85
:10240000DC00002070B50E4B1E689E4203D1FFF722
:10241000D1FF0C4870BDFFF7CDFF002EF9D0326917
:1024200073690400C517121BAB41002BF1DC03D10B
:10243000802109068A42ECD2D843C0171040E9E750
:10244000DC000020FFFFFF7FF7B5040016001F002F
:10245000531C01D17B1C5BD0A160EFF3108301936F
:1024600072B6002F23DA7B1C01D1B31C1FD82D4B71
:102470001868596802225242D317121A8B41921BD4
:10248000BB41002B04DC01D1002A01D10122002331
:10249000254F226163613D68BD4200D100257E6801
:1024A000002D0FD12760666034607C601CE0FFF770
:1024B00081FF0122002392197B410600C717921960
:1024C0007B41E5E72869696922696369994202DC11
:1024D0001FD190421DD9801A99416B6828616961AA
:1024E000636025601C606C603B68BB420AD09C4204
:1024F00008D10E4B1C68002C04D1FFF783FF21008C
:10250000FFF780F9019B002B02D162B6BFF36F8FFA
:10251000F7BD121A8B4122616361B542C2D02D68AA
:10252000BEE7C04670020020DC00002070030020DF
:10253000F0B585B0EFF3108372B60293304B18609C
:10254000304B1C689C4200D100242F4B2C4D039330
:10255000186859682B689C46002C39D06269266936
:10256000DB179A4202DC0AD1664508D91F002269AE
:1025700063696646921BBB412261636128E0F317E1
:1025800000960193009A019B801859410023002274
:102590001D4F22616361386079602000FFF716FFEC
:1025A000029B002B02D162B6BFF36F8F2000A3689D
:1025B0009847EFF3108372B60293114B1A68921B7F
:1025C0001A60104B94461C689C42BED138687968EA
:1025D0006246D31712184B41002403992C600A60FD
:1025E0004B60FFF70FFF2100FFF70CF9029BA3429E
:1025F00002D162B6BFF36F8FFFF796FE05B0F0BD54
:1026000070030020DC0000207002002010B5EFF302
:10261000108472B6FFF7CEFE02000649C3170868A1
:10262000496880185941002C02D162B6BFF36F8F00
:1026300010BDC04670020020F7B50400EFF310850E
:1026400072B603680195002B05D0002D52D162B6F9
:10265000BFF36F8F4EE0826AC36A002101208018A9
:102660005941002901D1012829D9002B04DC01D1CD
:10267000002A01D10122002301267642F717B6185D
:102680005F4101F0D8F801220023801859418019D8
:102690007941002902DC2ED100282CD001F0CBF8A2
:1026A000012200238018594102225242D317801977
:1026B0007941121A8B4120001849FFF7C5FE236BA0
:1026C00001332363236A002B0BD0002D02D162B6A5
:1026D000BFF36F8F2000236A9847EFF3108372B621
:1026E0000193A5691834A54201D0002D07D1019BA3
:1026F000002BACD0F7BD02225242D317DBE72800F3
:1027000001F006F80023EB66019B002B02D162B6B4
:10271000BFF36F8F280000F0EFFFEBE739260008CA
:10272000F8B5060014001D00EFF3108772B6511CB7
:1027300007D1591C05D1002F02D162B6BFF36F8FAC
:10274000F8BD002B03DA591C0FD1911C0DD91400D0
:102750001D1E05DC002B01D1002A01D1012400251A
:1027600001225242D317A4185D41300001F04CF809
:10277000069A079BB262F3620023220033633000A3
:102780002B000249FFF760FED5E7C0463926000856
:1027900010B5024800F0E8FA10BDC046713E0008CE
:1027A000F0B5436893B003900893837815009B07B6
:1027B00000D4F8E0002301930E78002E6AD0252E75
:1027C0000DD04B1C0993019B013301930399089B86
:1027D000F0B29847002800DADFE00999ECE74E787C
:1027E0008B1C0993252EEED0002304211C00099A8E
:1027F0000293079309921F2C2ED8300020381028FE
:102800000AD8FDF755FC1D0909270909091E090900
:10281000091B0925090918003300303B092B29D968
:102820002A2E32D108CD600622D4002B29DB2020AD
:102830000793044305E001231C4302E002231C43E9
:102840000C43099B01321E78002ED3D109922DE052
:102850000823F1E71023EFE77F2C1ED83300303B2D
:10286000092BDDD8600605D50A20029E7043C318E7
:102870000293E6E70A20079E7043C31807932023BC
:10288000DAE75B4207932823D6E72E2E05D14023B3
:102890001C42D1D0019813B0F0BD6C2E2DD027D89A
:1028A000682E31D06A2E32D04C2E30D0029B002BB5
:1028B00003DA40239C4300230293202333431A006E
:1028C000653A022A01D9612B24D10722EB1D9343DB
:1028D00008331D00AB4F0292240753D5019A029B87
:1028E00016009C18B4424FD1079B029A9E1A82E1AF
:1028F000742EA6D07A2EA4D0D8E780231C429BD079
:1029000080208000044397E780235B00F6E7A02344
:102910009B0091E730006338122800D9E3E0FDF70F
:10292000C7FB0A46E2E2E2E246E2E2E2E2E2F3DD8D
:10293000E2E211E2AD0004CD0CAB1A7001230CAF42
:102940000293C9E780CD002F00D18F4F0299630613
:1029500001D401214942380000F0C1FF0290BBE7D9
:1029600020200399089B9847002816DB013C029B16
:10297000A342F5D3079A019B944663441B1B019322
:102980000794ABE7079CF2E7019B0399FB1A985D5C
:10299000089B984701360028A4DA039B9A78042301
:1029A0001343039A937001235B42019372E723065A
:1029B0003FD5A30537D50722073595432F000CCF08
:1029C00004920593102325009D43059B002B3ADAC2
:1029D0000499059A00244B42944104930594802362
:1029E000DB001D43ADB20CAC0A230498059922000C
:1029F00000F080FF041B6B0665D501232A009A4373
:102A00001300029AA24200DCA4E0002E00D19CE058
:102A10001022290011400B91154200D09CE0029A2F
:102A20001D0006921EE02F0008CF0493DB170593CC
:102A3000C8E72F0008CFE205F7D5A20501D55BB2A4
:102A4000F3E71BB2F1E7049B059A1343CBD163066E
:102A5000C9D5029B002BC6D111339C43029B250094
:102A60001C0006932A00494B1A400B921D4277D056
:102A7000069B0133069300230B9371E010239C43C4
:102A8000063B9C46802322001A4006921C4242D0FC
:102A900021008133FF3319401C4239D00722EB1D3E
:102AA00093431F0003CB083703000B4346D1250097
:102AB00016339D43630644D5029B002B41D1173347
:102AC0009C432500029C10232A001A400B921D42B1
:102AD00056D0631C002E42D022003FE010237826FF
:102AE0009C461C43CEE7782B04D110229B1B1A4333
:102AF0009446C7E725200399089B9847002800DAE9
:102B00004BE7019B023360E6082300269C46B9E7A9
:102B10002F0001CFC8E72F008022210008CF5200EC
:102B2000180011401442BFD08022210092001140B1
:102B300098B21442B8D00699D8B2B5E706239C43A0
:102B400025000CAC6346220052E711239D43029BF3
:102B5000069387E71D00B6E71D00029A931C0693B3
:102B60002B072AD4EB0709D5079B069A02949342B8
:102B700004DD9B1A1B190293079B0693069B10E02A
:102B800006946FE7B33E0008AC3E00080604000060
:102B900020200399089B9847002800DAFDE60A9B4D
:102BA00001330A930A9A079B9342F1DC069A019B30
:102BB0009B1A0A9A9B18019306920B9B002B25D017
:102BC00030200399089B9847002800DAE5E6019B2E
:102BD000002E12D101330193019E029B019A9B1892
:102BE0009B1BA34220DC2500002D25D13D00079B27
:102BF000069AA4199E1A019431E002330193F0B2AF
:102C00000399089B98470028E6DAC6E6174B1D4251
:102C1000E2D02020AB0700D50B306D0500D52D206C
:102C2000019B01330193EBE730200399089B0136A8
:102C300098470028D1DAB0E60CAB013DE85C039977
:102C4000089B98470028CFDAA7E6019B2020013394
:102C500001930399089B9847002800DA9DE6019AA2
:102C6000A3199B1A002BF0DCB7E5C0460604000050
:102C70007047012310B51C008C40210004692468B2
:102C80000C4200D05A40002A03D08368DB68984782
:102C900010BD83681B69FAE7C900401840884008E6
:102CA0007047F8B50D000400FFF7F6FFFDF7A6FA30
:102CB0001F21091A8A00A218EB0010691F1D063394
:102CC000E719E318AEB2002808D101308840E16866
:102CD0000143E16015613E801E80F8BDC1000431F2
:102CE000625A3A80D200A2181880D6806652F4E761
:102CF0000723F7B50027043ACC1D89189C43994354
:102D00000B1BDE080460A660E760300000930191B1
:102D10002425FDF773FA20222D1A121A20003900FB
:102D20009200103000F0D3FD0123AD000735ED080F
:102D30006A001A436280711BEA00A0184B002780CA
:102D40004380009BA552E218019B57801980012304
:102D5000F600A61972882900134373802000FFF73C
:102D6000A0FFF7BD002070470FB407B504A901C943
:102D70000191FDF7D7FB03B008BC04B018477047BA
:102D8000704710B5012801D1EFF30583FEF722FE4D
:102D900010BD10B501000068FFF7F3FF10BD10B5BE
:102DA00000210120FFF7EDFF10BD10B5FFF7E8FF90
:102DB000FEF792FEFFF7E4FAFDF79EFDFEF7CCFE6C
:102DC000002802D162B6BFF36F8F7047BFF34F8FF9
:102DD00030BF62B6BFF36F8F704710B5FDF7B4FD1B
:102DE000002010BD012088407047002210B511005E
:102DF0000C20FDF71FFD0C20FDF710FD10BD10B5D8
:102E00000400083C0121200000F032FD002803D11D
:102E10002000FDF7FDFE10BD10235B422366FAE79C
:102E2000F0B5036989B0403304000D000593012219
:102E30005242D3170598FEF71DFF636826691B6889
:102E4000AA680393330094331A606F68DF60380018
:102E5000FDF732FA33000022A43318705A709742FB
:102E600009D0616800200B002B33185601330493FE
:102E7000824203DB18D11624644289E0049F930048
:102E8000FB582F7CBC46DF0CBC4500D086E00720F9
:102E90005A0B024004921A0C0240DF040692DAB286
:102EA000FF0EFF2A00D07BE0636806932369A033FE
:102EB0001F6800230493002F00D08CE0069B293369
:102EC0001B785BB2002B05D1069B1A68049B5B0341
:102ED0005B0B93623300A4331B782A685B00002AE3
:102EE00002D0928901325343EA689A4200D284E0C8
:102EF0006B7C002B00D082E0AB7C002B02D020004A
:102F0000FDF7BAFE0398FDF797FE1023039A1360AE
:102F1000042352681343039A536033002A00643336
:102F200013CA13C3002403CA03C334662B68A34225
:102F30005FD03200783223CB23C21B683500136088
:102F40003300783373661C82B36F0835A34250D0C8
:102F50002100300000F0A6FC210063220023B06FA6
:102F60008018594164220023FDF786F90022009061
:102F7000002328000191FFF7D3FB300001225242C9
:102F8000D3175030FEF776FE002800D03066346E3E
:102F90000598FEF73DFE200009B0F0BD013267E75D
:102FA0000868DBB20793C3181B68049AFB40134000
:102FB000069A9A4200D177E7FDF7C6FD0499636847
:102FC000B9401A68079BD21813688B430699B94019
:102FD0000B43136068E73800FDF7ACF901230138B3
:102FE000C0B28340049A80061843024304929F4370
:102FF00061E73000FDF70CFEBFE70C243CE78624B8
:103000003AE703000020012B03D0073B012B00D936
:10301000863870477047436800205B681B690B6007
:10302000704743685B6858694240114041405961AC
:1030300000207047436800205B68996170474368CF
:1030400000205B6899627047436800205A685369A2
:103050004B405361704710B503699868002821D030
:1030600088421BD10868DC689860A14200D1D86012
:1030700000200860824206D09A680A60DA68996087
:10308000002A00D1D960002010E0814206D10868F2
:103090002060D8688142EBD1DC60E9E70400006879
:1030A0000028F2D1002AE7D11620404210BDF0B529
:1030B0000126302485B00293330014400194940912
:1030C0008B4034408C4040680236456803279D435E
:1030D0002C4344608468A4461C008C406643F5433E
:1030E0000395D5093D4065432F006546B5432F4301
:1030F00087600327520A3A406243C568B5432A43B2
:10310000C260019A202A0CD1072914D823008B40D1
:103110008B400F215943026A8A4302994B43134360
:103120000362019B02681B095C43039B1A40144322
:10313000046005B0F0BD0F211B0A5B435B4359439C
:10314000426A8A4302994B431A434262E9E7802369
:10315000F0B517009B0285B01A400C00066901907B
:1031600002921F422FD0BB0705D550227B0703D404
:103170008620404265E01022C025AD023D40FB069E
:103180001CD580239B001A43002D05D033691900FC
:10319000E140C90700D470E0019B59683B0300D4AB
:1031A0007CE00123A34049688B6101980023210042
:1031B0004068FFF77CFF002D42D115E0BB06E3D548
:1031C0008023DB00DFE7C025AD023D40FB0326D5B1
:1031D000FB0613D5002D49D180222B0092000198C7
:1031E00021004068FFF763FF336901221900E140C5
:1031F000114225D0A2409343336121E020233A00BD
:103200001A4003921F4205D0002D27D180222B00A7
:10321000D200E4E7002D16D12B002A00DFE7002DB5
:1032200002D12B003022DAE733691A00CA40D207F4
:103230002CD530220198002321004068FFF737FF8A
:10324000002005B0F0BD33691A00CA409446012140
:1032500060460A40084210D0039AEBE733691A002F
:10326000CA40D20714D58022D200E3E733691A009E
:10327000CA40D2070FD4802292000121A1400B4303
:103280003361029B002B00D086E7D3E73022F4E7BE
:103290008022D200F1E780229200CBE77F0300D4A6
:1032A00083E70123A34049688B627EE770B50B007A
:1032B00089680500002903D05E680C68002900D1E8
:1032C00070BD8B681A002A402B4202D030004B6838
:1032D0009847231E00D0236821001C00EEE7F8B5B4
:1032E000050040681F000E001400FFF7E0FE112FDC
:1032F00006D101236A68B3405268240502D5936160
:103300000020F8BD9362FBE730B5036813600579D0
:103310000468ED006419A34202D30220404230BD8C
:103320005C798C4201D00833F0E70020F7E7406871
:10333000CB0300681B0D1B181F2001401E3888405E
:103340001B680340591E8B41002013707047426870
:10335000CB0312681B0D9B181F2211401E3A8A4096
:10336000186802431A600020704742681F20CB0390
:1033700001401E38884012681B0D9B181A68824352
:103380001A600020704770B50D000400FFF7DFFFE2
:1033900029002000FFF7E9FF002070BD012210B5D1
:1033A000436802211B68D869DC69C00810401442D8
:1033B00000D00843DC6904220C4200D01043D969D4
:1033C000114201D020221043C20701D508221A62FF
:1033D000820701D501221A62420701D502221A6230
:1033E000820601D504221A6210BD43681A68EFF301
:1033F0001081012383F3108810683F330343136067
:1034000081F31088704743681A68EFF31081012335
:1034100083F31088402013688343136081F310887E
:10342000704743681A68EFF31081012383F3108813
:1034300010681F330343136081F31088704743689B
:103440001A68EFF31081012383F31088202013689A
:103450008343136081F31088704743681B68D86901
:103460008006C00F704743681B68EFF3108001228D
:1034700082F3108899681143996080F31088EFF304
:10348000108182F310881868FF3202431A6081F3BA
:10349000108870470120704703699960DA607047AF
:1034A00010B502699368002B01D0D168984710BD10
:1034B000002210B511001B20FDF7BCF91B20FDF701
:1034C000ADF910BD43681B68D8694006C00F70474E
:1034D000436800201B68DA69120602D518684006A6
:1034E000C00F704770B543681B6818681C68C0043B
:1034F00003D5C020C000044217D08024DD6900201D
:10350000254211D0EFF3108572B6161A002E06DD93
:10351000DE69264203D00E5C01301E85F5E7002DE2
:1035200002D162B6BFF36F8F70BD86204042FBE7C9
:10353000802210B543681B68D8691042FCD0EFF3B5
:10354000108072B6DC69144205D10028F4D162B64D
:10355000BFF36F8FF0E71985002800D010BD62B669
:10356000BFF36F8FFAE7202243681B68D9691142C5
:1035700003D019680120114206D1DA6900205206F1
:1035800002D518684006C00F704770B54368002028
:103590001B681C681D68E40403D5C024E4002542B0
:1035A0000FD020250824161A002E0CDDDE692E42CD
:1035B00009D09E8C0E54DE6901302642F3D01C6285
:1035C000F1E78620404270BD082243681B68D86935
:1035D000104200D01A62DA69920603D500209B8C53
:1035E0000B70704701204042FBE770B5041E09D004
:1035F000FEF79CF9302305005C43FEF797F9401B6A
:10360000A042FAD370BD7047002809D00123C268D8
:1036100000205178194202D010784242504118409F
:103620007047EFF3108372B6FEE710B5FFF7F9FFAE
:1036300010B518C8002B06D100200123E26851788C
:103640000B43537010BD200098470028F4D0C317D7
:10365000C0185840FF2800DDFF20E3681870ECE731
:1036600010B500F034F910BD10B500F027F910BD09
:10367000704710B5EFF3108372B6FFF7A7FBF9E7B9
:103680000368426813605A60002303604360704718
:1036900010B50400FFF7F4FF0222637B93436373CA
:1036A0000023A36010BD70B504000D00FEF758FBA9
:1036B0000223627B13436373002D1CD0A5602B682B
:1036C0009D4209D16B68256063601C606C6012E0EC
:1036D0006A689A42F6D01B68002BF3D00E220E21A6
:1036E000A25659568A42F3D09142F1DD5A682360BE
:1036F000626014605C6070BD10B5EFF3108472B648
:10370000FEF75AFB002C02D162B6BFF36F8F10BDDB
:1037100010B5EFF3108472B68368002B01D0FFF769
:10372000B7FF002C02D162B6BFF36F8F10BD70B52A
:103730000400EFF3108572B62823427B1A420BD1A6
:103740008368002B01D0FFF7A3FF0422637B2000D6
:1037500093436373FEF730FB002D02D162B6BFF3D3
:103760006F8F70BD10B501211838FFF7E0FF10BD55
:1037700070B5EFF3108572B60468A0420BD0002C30
:1037800002D02000FFF784FF002D02D162B6BFF304
:103790006F8F200070BD0024F6E770B506000C00A6
:1037A0000D00FEF705FD013601D101350AD00200FA
:1037B000C31700210920801859410A220023FCF771
:1037C0005BFD70BD2000FCE710B5EFF3108172B611
:1037D0000122037B13420BD0002902D162B6BFF352
:1037E0006F8F62B6BFF36F8F0423181C02DF10BD0A
:1037F000437B1B0705D50029F9D162B6BFF36F8F54
:10380000F5E7FEF725FBF2E710B5EFF3108472B68B
:103810000368002B08D0FEF7D9FD0020002C02D150
:1038200062B6BFF36F8F10BD16204042F6E710B5A9
:10383000FEF7ECFE10BD10B5FEF7E8FE10BD10B5AA
:103840000400FFF7E1FF002811D1636A002B01D0CB
:103850002000984720001830FFF78AFF002806D084
:10386000FFF74AFFEFF3108072B6FEF7FBFB10BDC7
:103870000300EFF3108272B6006841181960002A45
:1038800002D162B6BFF36F8F70470300EFF310826F
:1038900072B60068411A1960002A02D162B6BFF3FD
:1038A0006F8F70470300EFF3108272B600681960E3
:1038B000002A02D162B6BFF36F8F7047002310B5A4
:1038C0009A4200D110BDCC5CC4540133F8E7030028
:1038D0008218934200D1704719700133F9E7030051
:1038E00041188B4202D01A78002A01D1181A704769
:1038F0000133F6E7F0B50D003721C91A8FB0C9B210
:103900000D911F2104000B400C930C99E3B2082980
:1039100055D0102900D164E0E90760080843690820
:1039200006900791A008A9070843A90808900991E3
:10393000089E099F06980799801979410E07B44699
:10394000060900966646009F37430E0900970196C8
:10395000009E019F801979410E06B4466746060A0B
:103960003E4302960E0A0396029E039F80197941F8
:103970000E04B4466746060C3E4304960E0C0596AC
:10398000049E059F8019794100260A910B960A9E94
:103990000B9F801979414E07CD080521C408344397
:1039A000614349005B1ADBB2092B12D901200021C7
:1039B0000A3B24184D41DBB21DE00200A5E70721B8
:1039C0000B4069078C466646E008E9080643340068
:1039D0000D00303313702300501C2B43EDD10FB07A
:1039E000F0BD0F210B4029078C46664620092909A6
:1039F000064334000D00092BEBD90D99CB18DBB22F
:103A0000E7E70000014800687047000078020020E6
:083A100032C9FF7F0100000034
:103A1800B10F0008703A0008850500080000000092
:103A280000000000843A000815120008C03A000897
:103A3800D9090008983A000815120008AC3A00089D
:103A480045150008D43A00081111000800000000CC
:103A5800811700080000000071090008000000003C
:083A6800910D0008E83A000886
:103A7000F23D0008000000001C3C0008F800002097
:103A8000000000001B3E0008483D00080C3C0008F8
:103A9000FE00002000000000C73D000800000000FC
:103AA00000000000F40000208C020020FF3D000810
:103AB000E03C0008E83B0008FA0000200C0300206E
:103AC0000D3E0008F43C0008E83B0008FC00002024
:103AD000200300202C3E00084C3D0008383C000824
:103AE00000010020C0000020E53D0008943C0008D3
:0C3AF000DC3B0008F60000200000002075
:103AFC00000000009F2D0008000000009F2D000812
:103B0C00000000009F2D0008000000009F2D000801
:103B1C00000000009F2D0008C53D00089509000815
:103B2C00C33D000895090008C13D0008950900082F
:103B3C00000000009F2D0008000000009F2D0008D1
:103B4C00000000009F2D0008000000009F2D0008C1
:103B5C0000000000C10C0008000000009F2D0008B0
:103B6C00000000009F2D0008000000009F2D0008A1
:103B7C00000000009F2D0008000000009F2D000891
:103B8C00000000009F2D0008000000009F2D000881
:103B9C00000000009F2D0008000000009F2D000871
:103BAC00000000009F2D0008000000009F2D000861
:103BBC00000000009F2D0008000000009F2D000851
:103BCC00000000009F2D0008D43A0008A134000822
:0C3BDC00850B0008212E0008E40C0000FE
:103BE8004F3100081730000823300008353000082E
:103BF8003F300008493000086511000857300008B8
:043C080000000000B8
:103C0C002F3300084F3300086B330008873300084C
:103C1C00410E0008810E000800000000B10E0008E3
:0C3C2C007D0F000800000000250F0008BC
:103C3800C9350008313500089D330008851400088F
:103C480099160008E53400088B350008EB330008A6
:103C580007340008D1340008233400083F34000832
:103C6800C53400085B3400086734000811130008E5
:0C3C7800673500089534000899340008F6
:103C8400E83A0008000108040000000000000C00ED
:103C940000240140EB2D0008D03C00080100000086
:103CA40000000080D83C0008020008000E001D003F
:103CB4002A0038004800F000010000040C63600092
:103CC4000C6351000C6342000C63330018000000C5
:103CD40000020000E03C000800000000FFFF0000BC
:103CE400000400480100000014000000000004006B
:103CF400FFFF000000000048000000001400000066
:103D040000000200C03A0008AC3A000800000000BD
:103D1400000000000000000000000000000000009F
:103D2400000000000000000000000000000000008F
:103D3400000000000000000000000000000000007F
:103D4400000000000010024000380140843A0008DE
:103D54008E010000743D0008010000000000000016
:103D640000000000000000007C3D0008B1340008A1
:103D74001800000000400000843D0008010000001D
:103D84008C3D000802000000210100000002000038
:103D94004101000000000000183A0008183A000829
:103DA400583A0008603A0008703A0008703A00086F
:103DB4000A44617461202D205B25645D00040C02BB
:103DC400020002696E746572727570742D636F6E91
:103DD40074726F6C6C657240343030313034303012
:103DE4000061646340343030313234303000726307
:103DF40063403430303231303030006770696F40A6
:103E04003438303030343030006770696F403438C3
:103E14003030303030300072657365742D636F6EEE
:103E240074726F6C6C65720073657269616C403496
:103E34003030313338303000000000000000000022
:103E44000102030406070809010203040506070822
:103E5400090A0B0C0D0E0F100203040506070809CE
:103E64000A0B0C0D0E0F10106D61696E002A2A2AC0
:103E740020426F6F74696E67205A6570687972208A
:103E84004F53206275696C642076342E302E302DA9
:103E9400323739312D673363343230613438323854
:103EA4003534202A2A2A0A00286E756C6C29002AC7
:083EB400666C6F61742A0000C6
:103EBC0000000000000000000000000000000000F6
:103ECC00392600080000000000000000000000007F
:103EDC002000002020000020FF2D00080000000022
:103EEC0000000000000000000000000000000000C6
:103EFC0040000020400000200000000001000000F5
:103F0C0050000020500000200000000001000000C4
:103F1C000000000000000000000000000000000095
:103F2C000000000000000000000000000000000085
:103F3C000000000000000000000000000000000075
:103F4C000000000000000000000000000000000065
:103F5C000000000000000000652D0008F5050008B9
:103F6C0000000000DB2D0008000000000000000035
:103F7C0000000000D0000020000000000000000045
:103F8C0000C201000001030000127A00DC000020D6
:103F9C00DC000020FFFFFFFFFFFFFFFFFFFFFFFF25
:043FAC00FFFFFFFF15
:0E3FB000000000000000000000000000000003
:043FBE0015E015E015
:0400000508000725C3
:00000001FF
