:020000040800F2
:1000000020080020610600081D0500084D060008B4
:1000100000000000000000000000000000000000E0
:100020000000000000000000000000003107000890
:100030000000000000000000C106000819170008B9
:1000400065080008650800086508000865080008DC
:1000500065080008650800086508000865080008CC
:1000600065080008650800086508000865080008BC
:1000700065080008650800086508000865080008AC
:10008000650800086508000865080008650800089C
:10009000650800086508000865080008650800088C
:1000A000650800086508000865080008650800087C
:1000B00002B4714649084900095C49008E4402BCFB
:1000C0007047C046002934D00123002210B4884272
:1000D0002CD301242407A14204D2814202D2090177
:1000E0001B01F8E7E400A14204D2814202D2490098
:1000F0005B00F8E7884201D3401A1A434C08A0423B
:1001000002D3001B5C0822438C08A04202D3001BD0
:100110009C082243CC08A04202D3001BDC082243E7
:10012000002803D01B0901D00909E3E7100010BC27
:10013000704701B5002000F00BF802BD0029F8D08F
:1001400003B5FFF7C1FF0EBC4243891A1847C046EA
:100150007047C0461C2101231B04984201D3000CA8
:1001600010391B0A984201D3000A08391B0998422A
:1001700001D30009043902A2105C40187047C04640
:100180000403020201010101000000000000000060
:10019000002B11D1002A0FD1002900D1002802D054
:1001A0000021C943080007B4024802A14018029088
:1001B00003BDC0469DFFFFFF03B4684601B502982A
:1001C00000F04CF8019B9E4602B00CBC7047C04644
:1001D000D0400B00D1409C46203AD34018435242B5
:1001E00063469340184370479140030090409C46FB
:1001F000203A9340194352426346D3401943704713
:1002000010B5002903D1FFF7A5FF203002E0080058
:10021000FFF7A0FF10BDC046F7B5040C0D0091B26A
:100220000F0061438C460600019383B2100C5F43BC
:10023000444358433B0C60441B18994202D9802127
:1002400049026418019955437143180C04191B04A1
:10025000BFB24919D819091903B0F0BDF0B50600AD
:100260000F0015001C0085B08B4263D801D182427B
:1002700060D821002800FFF7C3FF3900009030004C
:10028000FFF7BEFF009B21001B1A1A0028000393F2
:10029000FFF7AAFF00900191B94245D801D1B042C1
:1002A00042D8009B019C01200021039AF61AA74125
:1002B000FFF79AFF04000D00039B002B2BD0019B3E
:1002C000009ADB0750081843019B5908039B9C4682
:1002D000B9422CD801D1B04229D832003B00121AC1
:1002E0008B41012692185B410027B6185F4101231C
:1002F0005B429C446346002BEAD130003900039AEC
:10030000FFF766FF039AA4197D4106000F00FFF76F
:100310006BFF241A8D410A9B002B01D01E605F6089
:100320002000290005B0F0BD00240025C4E7B6195F
:100330007F41DCE700240025EDE70000F0B589B03F
:1003400003901B4D0121AC682800636806AA9847FA
:1003500000282BDB069E079F0023164A3000390039
:10036000FFF75AFF0023144A0491FFF711FF049A84
:10037000124B029005909A4218D832003B0000219F
:100380000398FFF749FF00230B4A0E00FFF700FF19
:100390000A4903008E4209D80599994206D30022E2
:1003A0000092012128002668029AB04709B0F0BDEA
:1003B000203700081027000000CA9A3BFFC99A3B6B
:1003C00070B51A4C200002F0BAFF002804D118487A
:1003D000216802F056FC70BD164802F052FC0A2556
:1003E00000242000FFF7AAFF134E2100300002F086
:1003F00048FC280003F036F8104B01349C42F0D141
:1004000000210F4803F017F82000FFF797FF2100A5
:10041000300002F036FC2800013C03F023F8002CE9
:10042000F2D10021064803F006F8D9E7203700088A
:10043000E83900080B3A00081D3A000810270000B0
:10044000B80B000010B5024B1B68984710BDC046A2
:1004500000000020014B18607047C04600000020DB
:1004600030B585B004000D0010220021684603F06D
:100470004AF86A4602239370044B2A00210068461A
:10048000019302F02DF905B030BDC04645040008C7
:10049000F7B504000D001E00019201F035FF0300C6
:1004A00003F0CCF8054F32003B5001992800A047DB
:1004B00003F0C4F8385800F0E7F8C0460800000020
:1004C000802102200A4BC9039A6982B00A439A61CB
:1004D0009A690A4007490192019A4A6882430020BA
:1004E0004A609A6904490A409A6102B07047C0465E
:1004F0000010024000580140FFFFBFFF1023044AD4
:1005000011680B431360034B034A1A607047C046DF
:10051000002002403C00002000127A0010B5034B7E
:100520001B68984700F022F810BDC0460400002068
:1005300030BFFDE7F7B50A4B0A4D0600EF18CC1B9C
:100540002A0020000849019302F0D4FF601900211D
:10055000019A02F0D8FF3800083C74660830FEBDEE
:100560000400000000000000B8380008074A936843
:10057000997B7F2908D85269934205D08023044A89
:100580005B0551680B4353607047C046A4020020CE
:1005900000ED00E070B5224B0C005B6888B0DB0515
:1005A000DB0D62B6BFF36F8F0025160E2900FF2EFC
:1005B00009D1F33E1640082E05D00100013512077F
:1005C00001D5210000250024032B14D18B69154A85
:1005D000934202D3144A934206D3144A002493420E
:1005E00009D3134A934206D2023B1A88114B0024C6
:1005F0009A4200D10C682022684602F07BFF079BDC
:10060000002D0AD0DA0502D10B4A1343079369463D
:10061000200002F043FB08B070BD5B0A5B02F5E707
:1006200000ED00E0B000000848360008000000209F
:100630000000002002DF0000FF0100000821024A44
:1006400053698B435361704700ED00E0EFF308807E
:10065000EFF3098101B57246FFF79CFF01BDC0466B
:1006600072B607480749401880F30988EFF31480F1
:100670000221084380F31488BFF36F8F02F022FB3E
:10068000D80200200002000010B50A4B9B6883428C
:100690000DD1EFF30583002B09D08022064B5205C4
:1006A00059680A435A605A6A04490A405A6202F079
:1006B000EAFE10BDA402002000ED00E0FF7FFFFF76
:1006C00015498A6815481044EFF3098CF0C0434679
:1006D0004C4655465E466746F8C072B6104F114EFE
:1006E0004A698A603E60104C141920680F4C2060E3
:1006F000906E00239366002800D162B6074C101953
:100700001030F8C89846A146AA46B346BC462438DD
:10071000F0C88CF309887047A40200203000000064
:1007200004ED00E00000000864000000D801002093
:1007300004207146014202D0EFF3098001D1EFF3AA
:1007400008808169023909780229FFD001B5724613
:1007500002F0ACFA01BDC04643B2000605D41F2228
:100760001A4001239340014A1360704700E100E002
:1007700030B5FF2503220B00290040B20240D20011
:1007800091409B012B40C943934000280ADBC024C1
:100790000A4A800880008018A40002590A401343C6
:1007A000035130BD0F2210400838054A80088000F0
:1007B0008018C26911401943C161F2E700E100E00D
:1007C00000ED00E010B5203A1360029B0124536055
:1007D000039B06499360049BA143D36080235B0481
:1007E000D361002391610265836610BD9104000806
:1007F00070B5094B15009860426E084B0E001A60E8
:100800002C1C86F309880020054B9847201C0021EA
:1008100000220023034C2047A4020020D80100201E
:10082000DB2C0008910400081022014B1A6170476C
:1008300000ED00E0F0B5C02400220326FF25A4004F
:1008400010002F003040C0008740054993089B00EE
:100850005B1819590132B94319511C2AF0D1F0BD66
:1008600000E100E010B5EFF30583054A103BDB0023
:10087000D118496898588847FFF778FE10BDC046E0
:100880003437000810B5024B1B689847002010BD94
:10089000DC010020034B044A1860022391780B43CB
:1008A00093707047DC01002008000020072310B57A
:1008B0000449054A99430548521A02F0A6F9002056
:1008C00010BDC0462708002000100020E0010020D5
:1008D00070B505000024012631002B781B19DAB20F
:1008E00091400A4A50690840884208D1084950613D
:1008F000DB005A58002A02D0C918496890470134D1
:100900006B78E4B2A342E7D270BDC0460004014058
:10091000EC0100200022052010B50C4C11002070C5
:100920006070FFF725FF002206201100A070E07024
:10093000FFF71EFF0C220721054802F0E4FD00220C
:1009400007201100FFF714FF002010BD4800002011
:100950004C00002010B50400FF20002C05D0200022
:10096000FFF7F8FB1F23181AC0B2044B1856044BAC
:100970001A6814431C60FFF7EFFE10BD480000200A
:1009800000040140024A1368834313607047C04665
:1009900000040140020000B5080003290AD80E4BEC
:1009A000FFF786FB02090C13996891439960D96897
:1009B0009143D96000BD99681143F7E7D9681143A5
:1009C000D960996891439960F4E7996811439960F7
:1009D000D9680A43DA60EDE70004014070B5FF23EF
:1009E0000D001400002804D0FFF7B4FB1F231B1ACE
:1009F000DBB2094AD8008358AB4203D111184968C9
:100A0000A14204D0002B04D11550121854600020CC
:100A100070BD10204042FBE7EC010020FF2310B521
:100A2000002804D0FFF796FB1F231B1ADBB200211E
:100A3000024ADB009950D218516010BDEC01002031
:100A4000032310B50F2403409B009C409940044AA7
:100A50008008800080188268A2430A43826010BD2B
:100A600000000140032303408008054A0230800053
:100A700080580F229B009A401040D8407047C046D3
:100A8000000001400B8813B50C481B051A0D1B18FC
:100A90001B0D082B0ED80A4C486813191A6802431C
:100AA00000201A600B881B051B0D1B191B68019386
:100AB000019B16BD86204042FBE7C0460000C0FEF9
:100AC000001002400B8809481B051A0D1B181B0D4E
:100AD000082B07D80020064B4968D3181A688A43A8
:100AE0001A60704786204042FBE7C0460000C0FE07
:100AF0000010024070B50B8814001B051A0D0D0084
:100B00001300072A27D01C2A25D8154A1549106832
:100B100001229A4016000E400A420CD11C210A42C2
:100B200011D186204042082B0CD100F0F7F80028A4
:100B300014D000F0F3F88023206029685B0199420B
:100B400003D2002070BD3000F5E7090B0131FFF73B
:100B5000B9FA2060F5E786204042F3E70520FBE77D
:100B60003C00002002001011F8B508880C000005B8
:100B7000000D02F0C7F800281EDB6368FF2B1AD0B7
:100B8000FF22180007261F270C4910404018590B58
:100B90001B0A3B40314099400568084B8D43056076
:100BA00061680A40D2180B0C090A334039408B4067
:100BB0001068034313600020F8BDC04600100240D7
:100BC0000B880A4A1B05180D9B1810B51B0D082B26
:100BD00008D8074BC01803684868984343425841F7
:100BE000013010BD02F08EF8F8E7C0460000C0FEEC
:100BF00000100240F7B5394E00F094F8300002F0D2
:100C00008AF800F03FFE364C364A636835001B0612
:100C10001B0FD35CD840137801901D41A84202D22B
:100C2000280000F087FF23682F4A134023608023A9
:100C300022685B021343236080239B0222681A42CE
:100C4000FCD00C2263681340082B16D123680A3AA3
:100C5000134206D1012321680B432360236813420A
:100C6000FCD003226368934363600C2362681A42DA
:100C7000FCD1F022636893436360802723681B4A9A
:100C8000BF041340236023683B42FCD100F034F8DA
:100C9000802322685B041343236023683B42FCD01B
:100CA000F022636893436360032362689A43013BC5
:100CB00013430C22636063681340082BFBD1019B34
:100CC000AB4202D3280000F035FF094B094A1E60F1
:100CD0006368002013406360FEBDC046006CDC0208
:100CE00000100240B43A0008FFFFFBFFFFFFFFFEC9
:100CF0003C000020FFF8FFFF064B074A59681140EF
:100D0000882252030A430F215A60DA6A8A43DA6260
:100D10007047C04600100240FFFFC2FF0048704706
:100D2000006CDC0280210A4B4905DA6982B00A4373
:100D3000DA61DA690A4001210192019A9A690A434B
:100D40009A619B690B400093009B02B07047C046BC
:100D50000010024010B5084802F0F1FA002808D04F
:100D6000064C2000FFF796FD2000FFF773FB0020E4
:100D700010BD13204042FBE70C370008810D00082E
:100D800070B50400074D0A2804D1AB680D21280076
:100D90005B689847AB6828005B68E1B29847200021
:100DA00070BDC0460C370008F7B547681E000369E0
:100DB000B868009201930C0001F0A1FF8023009A13
:100DC00005009B039A4215D12000BD68FFF74AFE3B
:100DD00085420DD12100280001F091FF0400FFF7AA
:100DE000D1FD2000FFF71AFE00212000FFF7D2FD01
:100DF0000020FEBD8023009ADB039A4224D080238A
:100E0000DB049E421CD0C023DB049E421AD0802308
:100E100016209B049E4218D1022628000D49019AF3
:100E2000FFF7DCFD002812D12000B968FFF708FEAB
:100E300028003100FFF7AEFD2800FFF78BFDD7E754
:100E40000126EAE70326E8E786204042D1E71020A2
:100E5000FBE7C046AF2F000870B503690400586077
:100E6000094D280002F06BFA002809D06168AB68D0
:100E700028001B680C319847002800DD002070BD59
:100E800013204042FBE7C046A8360008F7B504002F
:100E90000025C90043180193019B9C4201D1002009
:100EA00035E01F27102223681F40134217D1202549
:100EB00062681543F8215A0949000A40E239FF39AE
:100EC0005B090B40134300931109F02A20D8114B02
:100ED0008900CE58002E0AD11320404217E0102F6F
:100EE00003D0112FE6D16568E4E73025E2E7300052
:100EF00002F025FA0028EFD00F2300992A001940AC
:100F000030003B0002F06CF808340028C4DAFEBD63
:100F10001620E2E7E0380008032340290AD011D860
:100F2000023B042906D00133102903D000230129F4
:100F300000D00633094A006AD25C0223934018406D
:100F4000D04070478022042352009142F2D0044BDB
:100F5000CB185A1E93410533ECE7C0467E3A000891
:100F600000FCFFFFF0B58DB0009312AB1B88456805
:100F70009C464B1E0393032B22D880235B029A428C
:100F800000D9D6E0802667466B4C4B1E76009B004E
:100F900037401C59029704290BD1002F10D1230090
:100FA000002A0FD129680A6A9A430A6200200DB00C
:100FB000F0BD62495F58029B002BF0D03B1EEFD181
:100FC00016206DE0A96800292CD1013A012066465F
:100FD00001922A680640116A864019408B423ED130
:100FE0000321402B0AD02FD80100042B06D0011872
:100FF000102B03D00021834200D00631504C136ADD
:10100000615C02248C408E40A3431E431662039A07
:101010004C4B9000C3580099286898472B68019A58
:10102000DA62C3E7102903D1009901390091CCE7B6
:1010300040260800B043202801D0402979D10099EA
:10104000520849080091C1E7802404216400A342AA
:10105000D4D03D495B18591E8B41591DCEE704A8D9
:1010600002F062F960230493029B002B1AD0012343
:10107000099606932B6821001B6A23401B1B5A42CA
:10108000534105932868FFF747FF0890009B210014
:101090000793286804AA00F05BFC002814D0052000
:1010A000404284E7012308960593002FEED02B6879
:1010B00039001B6A3B40DB1B5A42534106932868A8
:1010C000FFF72AFF0990E1E780232A6811680B43A4
:1010D00013602B68402C26D01AD8042C25D0102C55
:1010E00025D0012C00D00620184A1833125CD218E3
:1010F000174B1168185C082383400B4313602B685F
:10110000019ADA6201232A6851690B4353614DE762
:101110008022042052009442E6D00B4AA418621E9A
:101120009441601DE0E70320DEE70120DCE70220B8
:10113000DAE78620B4E7C0466C3900086039000859
:101140007E3A00085039000800FCFFFF8C3A000886
:10115000853A0008F0B589B0076945682F4E300020
:1011600002F0EDF8002853D02B00B4680C33019343
:101170003000236801999847002847DBE36858202E
:10118000002B46D003AC220030000199984700287C
:101190003CDB039B7868B9683B608368DB68002BA5
:1011A00000D0984722000021686901F02EFF002836
:1011B0002CDB039B002219791868FFF767FE0028D3
:1011C00024DB200002F0A7F86B6821002380AB68C5
:1011D00063600023A360E360286800F079FB0028C7
:1011E00019D12B680E4A934205D00E4A934202D081
:1011F0000D4A934204D18022596C12020A435A6468
:10120000012300202A6811680B43136009B0F0BD68
:1012100013204042FAE70520FBE7C046A836000845
:10122000002C0140004401400048014037B50269EC
:10123000436810680C001D68D9688368DB68002B60
:101240000FD001AA984700280BDB2B68054A6008DD
:1012500013402B60019B2100C018FEF733FF80B2C2
:10126000E86037BDFF7FFFFF43681B68EFF3108026
:10127000012282F3108899689143996080F3108865
:10128000EFF3108182F3108803481A6802401A6055
:1012900081F310887047C046FFFEFFFFF0B50C00D9
:1012A000036941685D68237985B0012B33D09A1EAC
:1012B0005642724192026679013E771EBE41760324
:1012C0000396A679042E29D05E1EB3411B03019319
:1012D000E67900270296012E01D1C027BF000968D8
:1012E000A5421ED10C68374E019B34402243134364
:1012F0000B604B68344A1340039A13434B604368B6
:1013000032491A6893680B403B4393602968FFF7A2
:101310008DFF05B0F0BDC022D200CCE780235B0179
:10132000D5E7C0230E68DB001E40B24204D00E6831
:10133000274B1E4016430E60C0264268039B11686F
:10134000B6014A6832409A4204D04A681E4E324082
:101350001A434A6080264268019B116876010A6838
:101360003240934204D00A681A4E324013430B6055
:10137000C021436889001A6893680B409F4204D0DB
:10138000936812490B403B43936080224368D2012B
:101390001B689968114206D0029A032A09D09A68FC
:1013A0000D490A4004E00299032902D199680A43D1
:1013B0009A6021682B689942ABD0FFF737FF23680A
:1013C0002B60A6E7FFE9FFFFFFCFFFFFFFFCFFFF5A
:1013D000FFF9FFFFFFEFFFFFFFBFFFFFF7B5436818
:1013E0000C001D6803695B6801930A798F79012AF3
:1013F0000AD149794B1E5A1E9341C0225B03042F28
:101400000CD18620404234E0022A0FD1042FF8D0BC
:1014100049794B1E5A1E934180225B03D200002B58
:1014200001D00329EDD1002A2FD1EAE749794B1EDB
:101430005E1EB3415B03042F21D1002AE1D1002BB2
:1014400001D00329DDD1E379002B04D0012B1FD17A
:10145000114B9D42D5D101272B682100BB432B6046
:10146000FFF71CFF00202B68019E1F432F6006CC56
:1014700006C6FEBD033A012AC3D90022CFE7002ADF
:10148000F8D1002B01D00329BBD1032FDBD0B8E763
:10149000032BDDD0B5E7C04600380140F0B50600AB
:1014A000476804694E4885B0206001F048FF002875
:1014B00002D1132040428EE02068F96883681B68DF
:1014C0009847002800DA86E00021386A03AA01F074
:1014D0009CFD00287FDB039B002219791868FFF729
:1014E000D5FC002877DB0122756833692C685B68BE
:1014F0000193236893432360686801F020FF00286C
:10150000D7D06868A9688368DB68002B00D098474B
:10151000EFF31082012383F310880C2123680B431F
:10152000236082F3108830000199FFF7B7FE2B7D0E
:10153000002B03D00823A2681343A3606B7D002B0C
:1015400004D080226368120213436360AB7D002BDA
:1015500004D080226368520213436360EB7D002B4A
:1015600004D0802263689202134363602B7E002BB9
:101570001FD01C4B9C4230D173681A68802391683D
:10158000DB010B43936022686B7E17495B050A40C1
:10159000134323602268AB7E14491B040A401343A3
:1015A0002360EB7E002B04D08022A3681202134339
:1015B000A360012322681343236080239B03E26915
:1015C0001A42FCD08023DB03E2691A42FCD03000CF
:1015D0007B6A9847002005B0F0BD16206AE7C04638
:1015E000A836000800380140FFFF1FFCFFFFE0FFA6
:1015F000C02210B580240369D2005B68E4001B6838
:101600000B6043681B681B6813400222A34204D08E
:101610001A4A9B185A425341DAB20A71C0224368EF
:1016200092011B685C680323144200D1023BC02472
:101630004B714368E4001B681A681B682340D2049E
:1016400018D55A4253410333C0228B71436892002C
:101650001B689B6813400A4A9B185A425341DBB2ED
:10166000CB71426812689268520400D503230020AF
:10167000CB7110BD5A4253410233E5E700FAFFFF38
:1016800000FDFFFF70B580251049114B8C681B6869
:101690000E6810488A686D02002C08D1002A11D10A
:1016A0001A002E4209D100681818801A70BD002A4D
:1016B0000AD02E4201D1A242F5D90468E418046090
:1016C0000968F0E71C00F4E71A00F2E710E000E018
:1016D000A0020020940200200A4A0020136A1B0284
:1016E0001B0A13629622084B52011A60074B084AE4
:1016F0001860084B5A600722986019680A431A60FC
:101700007047C04600ED00E0A002002094020020D7
:10171000BF12000010E000E070B5FFF7B3FF0C4B04
:101720000C4A186811680C4C401810609621002271
:1017300025681A604901401BFEF7C4FC96235B0133
:1017400043435B19236000F03FFFFEF70FFF70BDBE
:10175000940200209C02002098020020F0B5334D36
:10176000334E85B0002953D0431C08D101222B6889
:1017700093432B60FF231B06336005B0F0BD336835
:1017800001930027012848DCEFF31083039372B61E
:10179000FFF778FF0022AB680293264B1C68264BAC
:1017A00004191A60254B1B680093E01A90423ADB3B
:1017B00096235B015F43224AC01919008018FEF787
:1017C00081FC96235B015843009B1B1B1818802348
:1017D000DB00984200D218001A4B984200D918003A
:1017E000002330600138A9686860AB60029B0298F2
:1017F0005B1A1A19884202D2019A9B181A190D4BCA
:101800001A60039B002BB8D162B6BFF36F8FB4E7A9
:1018100033680193431CB4D10B480C4B984200DD54
:101820001800471EB0E78020C000D9E710E000E0B4
:10183000A00200209C0200209402002098020020B8
:10184000BF12000080E8FF00A60D0000A70D0000F9
:1018500070B5EFF3108572B6084A094B14681B681F
:10186000E41AFFF70FFF0019002D02D162B6BFF393
:101870006F8F96214901FEF725FC70BD9C02002068
:10188000980200200C2270B50C4D6B681A40082A93
:1018900011D10F200A499A0C02408C5CEA6ADB03E2
:1018A00007D508490240895C0748FEF70BFC6043F6
:1018B00070BD0648FBE70448FAE7C0460010024046
:1018C000D43A0008C43A000800127A0000093D002A
:1018D00010B5194A0368904202D0184CA04217D1A3
:1018E0007024A3434C682343154C2340CC68234306
:1018F00003608B68C3620B888362904205D0114BF2
:10190000984202D0104B984210D10B6903630DE04E
:101910000E4CA042E8D00B4CA042E5D00A4CA042AD
:10192000E2D003608B68C3620B8883620123426943
:1019300013434361002010BD002C0140000400400F
:10194000FFFCFFFF00440140004801400020004030
:10195000802370B55B00994200D19EE005D8012933
:101960002FD0102961D0012070BD80235B019942E6
:10197000F9D1036A644E654C33400362056A4168DD
:10198000C3692340146824021C43614B1D40136942
:101990001B032B43556833402D032B435D4DA84259
:1019A00005D05D4DA84202D05C4DA84204D15C4DEB
:1019B0000D409169890129434160C461D268026484
:1019C00030E07326036A8B430362036A44688569C7
:1019D000B543166835430226B343166933438B4338
:1019E00051680B434B49884205D04B49884202D08D
:1019F0004A49884212D108218B4351698900194311
:101A00000423994393689B000B4346492140946902
:101A10002143454C2140D46964000C4344608561F6
:101A2000D2684263036200209EE7036A374C8B430F
:101A30000362066A436885692540146824022C43C2
:101A40002025AE4315692D0135438D432900556886
:101A50002D010D432F49884205D02F49884202D0DD
:101A60002E49884213D180218D4351698901294330
:101A70004025A9439568AD010D432C490B40916960
:101A8000890019432A4B1940D369DB000B4343609B
:101A90008461D36883630562C5E77321036A214EBD
:101AA00033400362056A4368C4698C4311680C4380
:101AB0001D490D40116909022943556831402D0225
:101AC0000D431449884205D01349884202D0134976
:101AD000884213D116490D40516989022943134D9B
:101AE00029409568AD020D4307490B4091690901F2
:101AF0001943074B1940D3695B010B434360C46131
:101B0000D368C363C7E7C046FFEFFFFFFF8CFFFF4B
:101B1000FFDFFFFF002C014000440140004801406E
:101B2000FFBFFFFFFFFEFFFFFFFDFFFFFFFBFFFF0C
:101B3000FFF7FFFF020010B50120002A11D0094B6A
:101B4000094993429B410A685B4282431A430A60F7
:101B50000C681A000440A34201D00A6802405A40AF
:101B6000100010BD00366E010020024070B5EFF38A
:101B7000108572B6064B9C6801F0F2FB002D02D175
:101B800062B6BFF36F8F2000FEF77EFD70BDC046CA
:101B9000A402002070B50A4E83009D5901308400D4
:101BA0003359AB4200D870BD6B68002B04D02800BD
:101BB00001F0D9FB0835F3E72B689847FAE7C046F0
:101BC000D0390008012270B5244B032086B01A706A
:101BD000FFF7E0FF00F07CFD01F0E5FB0420FFF7DC
:101BE000D9FF1F4C26001F4DAC420ED300F09CFACB
:101BF000AE4220D300F0A8FAFEF7E2FB01211A4A18
:101C0000137B8B43137306B070BD636A0593236A1D
:101C10000493E3690393A3690293636901932369BE
:101C20000093E368A2686168206800F0BDF823684B
:101C30005C653034D7E7B26AF36A511C01D1591C94
:101C400005D011003068194303D100F03BFB30365A
:101C5000CEE70649183000F043FCF8E7D402002034
:101C60001438000814380008D80000202B3400086D
:101C700010B5034A03480021121A01F08CFB10BD75
:101C8000D802002068000020C822110070B570261C
:101C90000125414304004643104886B0091800203E
:101CA00004950E350395053565430D4B059002905F
:101CB00001900C48F6182D180B4B3000009500F0E1
:101CC00073F80422737B2C74934373730134074BB2
:101CD0006402E418EE606C6006B070BDD8040020A9
:101CE00068000020A4020020A9330008D8020020C8
:101CF000F0B5002087B0FFF74DFF224B83F3088833
:101D00002149224B0A6A00251A40C0231B041343B1
:101D10000B62FEF793FCFEF787FD02221C4B1D4E63
:101D2000FF329A81B3601D6601F008FBFEF7E6FB07
:101D30000120FFF72FFF0220FFF72CFF00F034FAFD
:101D4000154C164B7461A02205930123144E1549BE
:101D500004939200330020000395029501950095AD
:101D600000F022F804220700637B20009343637392
:101D700001F034FB2800FFF787FF32003900200014
:101D8000FEF736FDD804002000ED00E0FFFF00FF65
:101D900048010020A4020020D8000020E43A0008F6
:101DA000C51B0008A0050020F0B587B0059303000F
:101DB00058338365C365109B0727037304230025ED
:101DC0000732BA434373D2190F9BBA4383738B18FC
:101DD0000E0085601900C5738561C5610400049318
:101DE000FEF7A8FB049BC019B8431F1A0E9B3A00CC
:101DF00002930D9B310001930C9B20000093059BE7
:101E0000FEF7E0FC044B65659B68AB4200D01B6E9F
:101E10003800236607B0F0BDA40200200B21084A59
:101E200049429368D9669866802306495B054868ED
:101E300003434B6062B6BFF36F8F9368D86E7047F1
:101E4000A402002000ED00E00D2270B582560500CE
:101E5000437B002A04DA7F221340437301F0ABFA7C
:101E60000D4E0E4AB469B368944201D0002C00D1E3
:101E7000F4689D4208D05A7BD20605D1DA897F2AC0
:101E800002D9A269002A05D09C4202D0200000F0AD
:101E900071FA2300736170BDA4020020BC0200200F
:101EA0000D2370B5C356417B002B39DBCB0637D1F0
:101EB0008369002B34D1802252420A431C4C427366
:101EC000A1691C4A914200D00B00E169002B04D1AA
:101ED000026041600860E0610CE00E250E26455767
:101EE0009E57B5421DD0AE421BDD5968036041606C
:101EF00008605860A569954201D0002D00D1E568C1
:101F0000A3685A7BD20605D1DA897F2A02D9AA6949
:101F1000002A0AD0AB4202D0280000F02BFA6561FB
:101F200070BD9942D4D01B68D0E76361F8E7C04622
:101F3000A4020020BC020020F7B504001027019184
:101F4000002A00D0083F637B3B421FD13B435AB27B
:101F5000002A27DB6373082F2BD00023324E009317
:101F6000B569324B9D4201D0002D00D1F568B368B0
:101F7000AB4202D0280000F0FDF97561102F40D16E
:101F8000BFF35F8F6022637B93436373264B9B6831
:101F90009C4241D1EFF30583002B3DD10198FFF71F
:101FA0003DFFF7BD7F2213402000637301F003FA69
:101FB000D1E7A368002B02D0200001F004FA200032
:101FC0002600183001F07FFA5836A56DAE4201D0D8
:101FD000002D09D1144B9B689C42BED1EFF30583C1
:101FE0005A1E9341DBB2B9E7280001F0ECF9280052
:101FF000183001F068FA00232800EB66FFF750FF65
:10200000E3E7009B002BBBD00222094BFF329A81F1
:102010000022B3601A66B3E7019B002BC1D162B600
:10202000BFF36F8FBDE7C046A4020020BC020020B2
:10203000480100200D2270B582560400437B002A1F
:1020400004DA7F221340437301F0B5F98023627BE9
:102050005B4213431C4D6373AB691C4A934200D12E
:102060000023E969002B04D1226061600C60EC61FF
:102070000CE00E200E2620569E57B04220D08642FD
:102080001EDD5968236061600C605C60AE69AB68FE
:10209000964201D0002E00D1EE689C4208D05A7BB7
:1020A000D20605D1DA897F2A02D9B269002A05D081
:1020B0009E4202D0300000F05DF933006B6170BDCC
:1020C0009942D1D01B68CDE7A4020020BC020020B9
:1020D00010B500290AD1EFF30580002807D1064B7F
:1020E0009A685B699A4202D0FFF798FE10BD62B60B
:1020F000BFF36F8FFAE7C046A402002010B5002896
:102100000AD1EFF30580002807D1064B5A699B6876
:102110009A4202D0FFF782FE10BD62B6BFF36F8F06
:10212000FAE7C046A4020020EFF3108172B6054B17
:102130009A68D37B013BD373002902D162B6BFF307
:102140006F8F7047A402002070B5EFF3108672B64F
:10215000134DAB68DA7B0132DA73AC69114A9442F1
:1021600001D0002C00D1EC685A7BD20605D1DA8967
:102170007F2A02D9A269002A05D09C4202D0200001
:1021800000F0F8F823006B61002E02D162B6BFF3B5
:102190006F8FEFF3108072B6FFF7B0FF70BDC046CF
:1021A000A4020020BC020020024B034A9A61DA61BB
:1021B0007047C046A4020020BC020020F8B5EFF32F
:1021C000108572B67F221E4CA068437B1340437378
:1021D00001F0F1F88022A3685242597B0A435A73F6
:1021E000A26918498A4200D10022E069002A04D17C
:1021F000196058600360E3610CE00E260E279E57BD
:10220000D757BE4217D0B74215DD50681A605860E4
:1022100003605360A6698E4201D0002E00D1E668AB
:10222000A3689E4202D0300000F0A4F82800666146
:10223000FFF7F4FDF8BD8242DAD01268D6E7C04657
:10224000A4020020BC020020F7B5060004000D0027
:102250000E4303D1FFF7B2FF3000FEBD4B1C26DB5F
:102260004B1C01D1831C22D301F040F90719EFF375
:102270001083019372B6104E104BB0681860FFF7D0
:10228000E3FDB06822002B000D49183000F028F95A
:102290000423B2680198517B0B435373FFF7BEFDD3
:1022A00001F024F9381AC343DB171840D5E7022799
:1022B0007F423F1BDBE7C046A4020020C40200208F
:1022C0002B34000870B50400183001F0FCF8EFF36F
:1022D000108572B60422637B134205D1002D02D112
:1022E00062B6BFF36F8F70BD934320006373FFF737
:1022F000D7FDEFF30583002BF0D129000148FFF74C
:10230000E7FEF0E7D5020020014B98687047C04611
:10231000A40200200121044B044AC01A044BC0103F
:102320004343D1547047C046B8010020D502002075
:10233000ABAAAAAAC289030000207F2A11D80A4AA0
:10234000106800280DD00E21084A59561268002046
:10235000914206DB5A7BD20603D10548181A431E68
:102360009841012318407047CC020020C802002089
:102370006800002070B518240C4B05001E7C0C4B27
:102380007443E418200001F09EF80022094B280055
:102390009A55FFF7CFFF002807D0074B20001A6897
:1023A0000649013AD31700F09BF870BDA402002043
:1023B000B8010020D5020020CC020020152300081F
:1023C00070B5EFF3108572B6104A114B9468186817
:1023D000A04207D1FFF7CEFF002D02D162B6BFF3B6
:1023E0006F8F70BD00211960127C0A4B9B5C8B4281
:1023F000F2D02000FFF79EFF0028EDD0637BDB06C4
:1024000002D12000FFF716FE2000E3E7A40200201F
:10241000C4020020D50200200648074A10B5121A4F
:10242000064900F0BCFF064A06480749121A00F0A8
:10243000B6FF10BD0000002066000020343B0008FD
:102440000000002000000020343B0008002010B5F0
:10245000034B1B68834201D1FFF7FAF910BDC04658
:10246000D002002030B500280ED00B4B5B6898429C
:102470000AD00168002907D00A694B6904694569D7
:1024800012196B410A614B610368426813605A601C
:1024900000230360436030BD4000002070B50E4B48
:1024A0001E689E4203D1FFF7D1FF0C4870BDFFF7B5
:1024B000CDFF002EF9D0326973690400C517121BD5
:1024C000AB41002BF1DC03D1802109068A42ECD21A
:1024D000D843C0171040E9E740000020FFFFFF7F0E
:1024E000F7B5040016001F00531C01D17B1C5BD004
:1024F000A160EFF31083019372B6002F23DA7B1CE7
:1025000001D1B31C1FD82D4B1868596802225242C2
:10251000D317121A8B41921BBB41002B04DC01D153
:10252000002A01D101220023254F226163613D6809
:10253000BD4200D100257E68002D0FD12760666066
:1025400034607C601CE0FFF781FF012200239219B8
:102550007B410600C71792197B41E5E72869696945
:1025600022696369994202DC1FD190421DD9801A09
:1025700099416B6828616961636025601C606C60CB
:102580003B68BB420AD09C4208D10E4B1C68002C11
:1025900004D1FFF783FF2100FFF7E0F8019B002B38
:1025A00002D162B6BFF36F8FF7BD121A8B41226161
:1025B0006361B542C2D02D68BEE7C046D00100209D
:1025C00040000020D0020020F0B585B0EFF310836A
:1025D00072B60293304B1860304B1C689C4200D19D
:1025E00000242F4B2C4D0393186859682B689C4688
:1025F000002C39D062692669DB179A4202DC0AD1C5
:10260000664508D91F00226963696646921BBB4173
:102610002261636128E0F31700960193009A019B01
:1026200080185941002300221D4F226163613860E8
:1026300079602000FFF716FF029B002B02D162B6E3
:10264000BFF36F8F2000A3689847EFF3108372B633
:102650000293114B1A68921B1A60104B94461C6827
:102660009C42BED1386879686246D31712184B4134
:10267000002403992C600A604B60FFF70FFF2100D4
:10268000FFF76CF8029BA34202D162B6BFF36F8FD3
:10269000FFF796FE05B0F0BDD002002040000020FC
:1026A000D001002010B5EFF3108472B6FFF7CEFE14
:1026B00002000649C3170868496880185941002C70
:1026C00002D162B6BFF36F8F10BDC046D0010020AB
:1026D00010B5024800F0D5FA10BDC046E93A00082E
:1026E000F0B5436893B003900893837815009B0777
:1026F00000D4F8E0002301930E78002E6AD0252E36
:102700000DD04B1C0993019B013301930399089B46
:10271000F0B29847002800DADFE00999ECE74E783C
:102720008B1C0993252EEED0002304211C00099A4E
:102730000293079309921F2C2ED8300020381028BE
:102740000AD8FDF7B5FC1D0909270909091E090961
:10275000091B0925090918003300303B092B29D929
:102760002A2E32D108CD600622D4002B29DB20206E
:102770000793044305E001231C4302E002231C43AA
:102780000C43099B01321E78002ED3D109922DE013
:102790000823F1E71023EFE77F2C1ED83300303BEE
:1027A000092BDDD8600605D50A20029E7043C318A8
:1027B0000293E6E70A20079E7043C318079320237D
:1027C000DAE75B4207932823D6E72E2E05D1402374
:1027D0001C42D1D0019813B0F0BD6C2E2DD027D85B
:1027E000682E31D06A2E32D04C2E30D0029B002B76
:1027F00003DA40239C4300230293202333431A002F
:10280000653A022A01D9612B24D10722EB1D93439B
:1028100008331D00AB4F0292240753D5019A029B47
:1028200016009C18B4424FD1079B029A9E1A82E16F
:10283000742EA6D07A2EA4D0D8E780231C429BD039
:1028400080208000044397E780235B00F6E7A02305
:102850009B0091E730006338122800D9E3E0FDF7D0
:1028600027FC0A46E2E2E2E246E2E2E2E2E2F3DDED
:10287000E2E211E2AD0004CD0CAB1A7001230CAF03
:102880000293C9E780CD002F00D18F4F02996306D4
:1028900001D401214942380000F03DFE0290BBE71F
:1028A00020200399089B9847002816DB013C029BD7
:1028B000A342F5D3079A019B944663441B1B0193E3
:1028C0000794ABE7079CF2E7019B0399FB1A985D1D
:1028D000089B984701360028A4DA039B9A780423C2
:1028E0001343039A937001235B42019372E723061B
:1028F0003FD5A30537D50722073595432F000CCFC9
:1029000004920593102325009D43059B002B3ADA82
:102910000499059A00244B42944104930594802322
:10292000DB001D43ADB20CAC0A23049805992200CC
:1029300000F0FCFD041B6B0665D501232A009A43B9
:102940001300029AA24200DCA4E0002E00D19CE019
:102950001022290011400B91154200D09CE0029AF0
:102960001D0006921EE02F0008CF0493DB1705938D
:10297000C8E72F0008CFE205F7D5A20501D55BB265
:10298000F3E71BB2F1E7049B059A1343CBD163062F
:10299000C9D5029B002BC6D111339C43029B250055
:1029A0001C0006932A00494B1A400B921D4277D017
:1029B000069B0133069300230B9371E010239C4385
:1029C000063B9C46802322001A4006921C4242D0BD
:1029D00021008133FF3319401C4239D00722EB1DFF
:1029E00093431F0003CB083703000B4346D1250058
:1029F00016339D43630644D5029B002B41D1173308
:102A00009C432500029C10232A001A400B921D4271
:102A100056D0631C002E42D022003FE010237826BF
:102A20009C461C43CEE7782B04D110229B1B1A43F3
:102A30009446C7E725200399089B9847002800DAA9
:102A40004BE7019B023360E6082300269C46B9E76A
:102A50002F0001CFC8E72F008022210008CF5200AD
:102A6000180011401442BFD0802221009200114072
:102A700098B21442B8D00699D8B2B5E706239C4361
:102A800025000CAC6346220052E711239D43029BB4
:102A9000069387E71D00B6E71D00029A931C069374
:102AA0002B072AD4EB0709D5079B069A0294934279
:102AB00004DD9B1A1B190293079B0693069B10E0EB
:102AC00006946FE72B3B0008243B00080604000037
:102AD00020200399089B9847002800DAFDE60A9B0E
:102AE00001330A930A9A079B9342F1DC069A019BF1
:102AF0009B1A0A9A9B18019306920B9B002B25D0D8
:102B000030200399089B9847002800DAE5E6019BEE
:102B1000002E12D101330193019E029B019A9B1852
:102B20009B1BA34220DC2500002D25D13D00079BE7
:102B3000069AA4199E1A019431E002330193F0B26F
:102B40000399089B98470028E6DAC6E6174B1D4212
:102B5000E2D02020AB0700D50B306D0500D52D202D
:102B6000019B01330193EBE730200399089B013669
:102B700098470028D1DAB0E60CAB013DE85C039938
:102B8000089B98470028CFDAA7E6019B2020013355
:102B900001930399089B9847002800DA9DE6019A63
:102BA000A3199B1A002BF0DCB7E5C0460604000011
:102BB0007047C9004018408840087047F8B50D00BC
:102BC0000400FFF7F6FFFDF7C5FA1F21091A8A0076
:102BD000A218EB0010691F1D0633E719E318AEB207
:102BE000002808D101308840E1680143E1601561A7
:102BF0003E801E80F8BDC1000431625A3A80D20086
:102C0000A2181880D6806652F4E70723F7B500278C
:102C1000043ACC1D89189C4399430B1BDE080460C1
:102C2000A660E7603000009301912425FDF792FA39
:102C300020222D1A121A200039009200103000F0C4
:102C400062FC0123AD000735ED086A001A4362807B
:102C5000711BEA00A0184B0027804380009BA552FF
:102C6000E218019B578019800123F600A61972888B
:102C70002900134373802000FFF7A0FFF7BD002059
:102C800070470FB407B504A901C90191FDF7E8FB2E
:102C900003B008BC04B018477047704710B501284E
:102CA00001D1EFF30583FEF761FF10BD10B5010000
:102CB0000068FFF7F3FF10BD10B500210120FFF7FA
:102CC000EDFF10BD10B5FFF7E8FFFEF7D1FFFFF7EE
:102CD000A3FBFDF7AFFDFFF70BF8002802D162B6AA
:102CE000BFF36F8F7047BFF34F8F30BF62B6BFF334
:102CF0006F8F704710B5FDF7C5FD002010BD012096
:102D00008840704703000020012B03D0073B012BB4
:102D100000D9863870477047436800205B681B699C
:102D20000B60704743685B685869424011404140FE
:102D3000596100207047436800205B6899617047C3
:102D4000436800205B6899627047436800205A68B6
:102D500053694B405361704710B503699868002868
:102D600021D088421BD10868DC689860A14200D15C
:102D7000D86000200860824206D09A680A60DA684B
:102D80009960002A00D1D960002010E0814206D16C
:102D900008682060D8688142EBD1DC60E9E7040074
:102DA00000680028F2D1002AE7D11620404210BD69
:102DB000F0B50126302485B002933300144001940D
:102DC00094098B4034408C404068023645680327A4
:102DD0009D432C4344608468A4461C008C40664399
:102DE000F5430395D5093D4065432F006546B5433E
:102DF0002F4387600327520A3A406243C568B543B0
:102E00002A43C260019A202A0CD1072914D8230032
:102E10008B408B400F215943026A8A4302994B43EE
:102E200013430362019B02681B095C43039B1A4026
:102E30001443046005B0F0BD0F211B0A5B435B43E4
:102E40005943426A8A4302994B431A434262E9E773
:102E50008023F0B517009B0285B01A400C0006696C
:102E6000019002921F422FD0BB0705D550227B074D
:102E700003D48620404265E01022C025AD023D40CB
:102E8000FB061CD580239B001A43002D05D0336917
:102E90001900E140C90700D470E0019B59683B0369
:102EA00000D47CE00123A34049688B610198002392
:102EB00021004068FFF77CFF002D42D115E0BB06E2
:102EC000E3D58023DB00DFE7C025AD023D40FB03F7
:102ED00026D5FB0613D5002D49D180222B00920068
:102EE000019821004068FFF763FF33690122190050
:102EF000E140114225D0A2409343336121E02023D9
:102F00003A001A4003921F4205D0002D27D180229B
:102F10002B00D200E4E7002D16D12B002A00DFE7BA
:102F2000002D02D12B003022DAE733691A00CA40A3
:102F3000D2072CD530220198002321004068FFF7EA
:102F400037FF002005B0F0BD33691A00CA4094462F
:102F5000012160460A40084210D0039AEBE733692A
:102F60001A00CA40D20714D58022D200E3E73369A1
:102F70001A00CA40D2070FD4802292000121A1403A
:102F80000B433361029B002B00D086E7D3E730224E
:102F9000F4E78022D200F1E780229200CBE77F03A2
:102FA00000D483E70123A34049688B627EE770B5B4
:102FB0000B0089680500002903D05E680C680029B1
:102FC00000D170BD8B681A002A402B4202D030001D
:102FD0004B689847231E00D0236821001C00EEE7B1
:102FE000F8B5050040681F000E001400FFF7E0FE72
:102FF000112F06D101236A68B3405268240502D517
:1030000093610020F8BD9362FBE730B5036813605D
:1030100005790468ED006419A34202D302204042FE
:1030200030BD5C798C4201D00833F0E70020F7E72F
:103030004163704781637047C163704701647047A3
:1030400010B5140042680369516818680131FDF732
:1030500039F820600020606010BD4068CB03006834
:103060001B0D1B181F2001401E3888401B680340A1
:10307000591E8B410020137070474268CB031268C1
:103080001B0D9B181F2211401E3A8A4018680243EC
:103090001A600020704742681F20CB0301401E3891
:1030A000884012681B0D9B181A6882431A60002022
:1030B000704770B50D000400FFF7DFFF2900200006
:1030C000FFF7E9FF002070BD012210B5436802211F
:1030D0001B68D869DC69C0081040144200D008435E
:1030E000DC6904220C4200D01043D969114201D09E
:1030F00020221043C20701D508221A62820701D597
:1031000001221A62420701D502221A62820601D503
:1031100004221A6210BD43681A68EFF3108101237C
:1031200083F3108810683F330343136081F31088E2
:10313000704743681A68EFF31081012383F3108806
:10314000402013688343136081F3108870474368FD
:103150001A68EFF31081012383F3108810681F337E
:103160000343136081F31088704743681A68EFF3D4
:103170001081012383F31088202013688343136098
:1031800081F31088704743681B68D8698006C00FB8
:10319000704743681B68EFF31080012282F31088A8
:1031A00099681143996080F31088EFF3108182F3DE
:1031B00010881868FF3202431A6081F31088704744
:1031C0000120704703699960DA60704710B50269A1
:1031D0009368002B01D0D168984710BD002210B52C
:1031E00011001B20FDF7C4FA1B20FDF7B5FA10BD36
:1031F00043681B68D8694006C00F704743680020C9
:103200001B68DA69120602D518684006C00F7047BD
:1032100070B543681B6818681C68C00403D5C020DB
:10322000C000044217D08024DD690020254211D05F
:10323000EFF3108572B6161A002E06DDDE692642FF
:1032400003D00E5C01301E85F5E7002D02D162B679
:10325000BFF36F8F70BD86204042FBE7802210B520
:1032600043681B68D8691042FCD0EFF3108072B637
:10327000DC69144205D10028F4D162B6BFF36F8F28
:10328000F0E71985002800D010BD62B6BFF36F8F3C
:10329000FAE7202243681B68D969114203D01968F4
:1032A0000120114206D1DA690020520602D51868C1
:1032B0004006C00F704770B5436800201B681C684B
:1032C0001D68E40403D5C024E40025420FD0202566
:1032D0000824161A002E0CDDDE692E4209D09E8CC1
:1032E0000E54DE6901302642F3D01C62F1E78620DD
:1032F000404270BD082243681B68D869104200D064
:103300001A62DA69920603D500209B8C0B70704715
:1033100001204042FBE70122002352420380436028
:103320008260C36003617047002303604360836071
:10333000C360036143618361C361704770470028C4
:1033400009D00123C26800205178194202D01078B8
:103350004242504118407047EFF3108372B6FEE7C7
:1033600010B5FFF7F9FF10B518C8002B06D10020E3
:103370000123E26851780B43537010BD2000984739
:103380000028F4D0C317C0185840FF2800DDFF20E4
:10339000E3681870ECE710B500F0B5F810BD10B593
:1033A00000F0A8F810BD704710B5EFF3108372B6A7
:1033B000FFF799FCF9E70368426813605A6000233D
:1033C00003604360704710B50400FFF7F4FF02226A
:1033D000637B934363730023A36010BD10B5EFF3C9
:1033E000108472B6FEF75CFD002C02D162B6BFF30A
:1033F0006F8F10BD70B50400EFF3108572B62823EF
:10340000427B1A420BD18368002B01D0FFF7DBFF10
:103410000422637B200093436373FEF741FD002D7C
:1034200002D162B6BFF36F8F70BD10B5012118389D
:10343000FFF7E0FF10BD70B506000C000D00FEF7B1
:1034400003FF013601D101350AD00200C317002164
:103450000920801859410A220023FCF799FE70BD0B
:103460002000FCE70200C3170021632010B580187C
:10347000594100236422FCF78BFEC117FEF7E4FEDE
:103480006423584310BD10B5EFF3108172B60122CA
:10349000037B13420BD0002902D162B6BFF36F8FBA
:1034A00062B6BFF36F8F0423181C02DF10BD437B8D
:1034B0001B0705D50029F9D162B6BFF36F8FF5E779
:1034C000FEF73AFDF2E710B5EFF3108472B6036829
:1034D000002B08D0FEF7C6FF0020002C02D162B6F8
:1034E000BFF36F8F10BD16204042F6E710B5FFF70F
:1034F000D9F810BD002310B59A4200D110BDCC5CA4
:10350000C4540133F8E703008218934200D1704796
:1035100019700133F9E7030041188B4202D01A7881
:10352000002A01D1181A70470133F6E7F0B50D00F3
:103530003721C91A8FB0C9B20D911F2104000B4069
:103540000C930C99E3B2082955D0102900D164E0FE
:10355000E90760080843690806900791A008A907D1
:103560000843A90808900991089E099F06980799A1
:10357000801979410E07B446060900966646009FF9
:1035800037430E0900970196009E019F80197941EB
:103590000E06B4466746060A3E4302960E0A039696
:1035A000029E039F801979410E04B4466746060CBB
:1035B0003E4304960E0C0596049E059F80197941A2
:1035C00000260A910B960A9E0B9F801979414E079F
:1035D000CD080521C4083443614349005B1ADBB2BE
:1035E000092B12D9012000210A3B24184D41DBB2DE
:1035F0001DE00200A5E707210B4069078C466646DF
:10360000E008E908064334000D003033137023004E
:10361000501C2B43EDD10FB0F0BD0F210B402907FB
:103620008C46664620092909064334000D00092B03
:10363000EBD90D99CB18DBB2E7E700000148006831
:0836400070470000D8010020D2
:0836480014CCFF7F010000001B
:10365000F50B0008A8360008C104000800000000AF
:1036600000000000BC360008590E0008F8360008BB
:1036700015090008D0360008590E0008E436000885
:103680009D1400080C370008550D000800000000CC
:10369000D916000800000000AD0800080000000076
:0836A000551100082037000855
:1036A800513A000800000000503800085A00002075
:1036B80000000000933A00087C39000840380008F0
:1036C8006200002000000000333A000800000000FB
:1036D8000000000058000020EC0100205E3A0008BD
:1036E800B8380008143800085C0000206C0200207C
:1036F8006C3A0008CC380008143800085E00002036
:1037080080020020A43A0008803900086C380008BC
:1037180064000020240000207A3A000820390008BC
:0C37280038380008600000201800002065
:1037340000000000B92C000800000000B92C0008AB
:1037440000000000B92C000800000000B92C00089B
:1037540000000000B92C0008313A0008D108000824
:103764002F3A0008D10800082D3A0008D1080008B3
:1037740000000000B92C000800000000B92C00086B
:1037840000000000B92C000800000000B92C00085B
:1037940000000000B92C000800000000B92C00084B
:1037A40000000000B92C000800000000B92C00083B
:1037B40000000000B92C000800000000B92C00082B
:1037C40000000000B92C000800000000B92C00081B
:1037D40000000000B92C000800000000B92C00080B
:1037E40000000000B92C000800000000B92C0008FB
:1037F40000000000B92C000800000000B92C0008EB
:1038040000000000B92C00080C370008CD31000876
:10381400512E0008192D0008252D0008372D000809
:10382400412D00084B2D0008A90D0008592D000852
:043834000000000090
:08383800650F00084130000893
:103840005B3000087B30000897300008B330000878
:10385000850A0008C50A000800000000F50A0008F3
:0C386000C10B000800000000690B00080C
:10386C00F53200085D320008C9300008DD1300088D
:10387C00F115000811320008B732000817310008A2
:10388C0033310008FD3100084F3100086B3100085E
:10389C00F1310008873100089331000869120008E3
:0C38AC0093320008C1310008C53100084B
:1038B800FFFF0000000400480100000014000000A1
:1038C80000000400FFFF00000000004800000000A6
:1038D8001400000000000200F8360008E436000872
:1038E80000000000000000000000000000000000D0
:1038F80000000000000000000000000000000000C0
:1039080000000000000000000000000000000000AF
:10391800000000000000000000200040000000003F
:10392800000000001C0000000001000038390008F9
:103938004039000801000000483900080100000073
:103948008400000000000000313000083530000815
:10395800393000083D300008040000004000000035
:103968000004000001000000100000000001000039
:10397800001000000010024000380140BC3600086A
:103988008E010000A83900080100000000000000B6
:103998000000000000000000B0390008DD31000818
:1039A8001800000000400000B839000801000000BD
:1039B800C0390008020000002101000000020000D8
:1039C8004101000000000000503600085036000891
:1039D8009036000898360008A8360008A83600086F
:1039E8004572726F723A2050574D2064657669634C
:1039F80065202573206973206E6F74207265616479
:103A0800790A005354415254494E47204C454420AA
:103A180046414445004C4544205354415455533A7B
:103A28002025640A00040C02020002696E746572A3
:103A3800727570742D636F6E74726F6C6C65724002
:103A480034303031303430300072636340343030D9
:103A58003231303030006770696F40343830303080
:103A6800343030006770696F40343830303030306F
:103A7800300070776D0000020406080A0C00000888
:103A880000000008000000000404047265736574F7
:103A98002D636F6E74726F6C6C65720073657269FA
:103AA800616C403430303133383030000000000071
:103AB80000000000010203040607080901020304CC
:103AC80005060708090A0B0C0D0E0F100203040562
:103AD800060708090A0B0C0D0E0F10106D61696EB0
:103AE800002A2A2A20426F6F74696E67205A65700F
:103AF800687972204F53206275696C642076342E81
:103B0800302E302D323739312D67336334323061FE
:103B1800343832383534202A2A2A0A00286E756C3F
:0C3B28006C29002A666C6F61742A000092
:103B34007F2C00083105000800000000F52C000867
:103B4400000000000000000000000000BC36000877
:103B54000802000000000000340000200000000003
:103B64000000000000C201000001030000127A00FE
:103B74004000002040000020FFFFFFFFFFFFFFFF89
:083B8400FFFFFFFFFFFFFFFF41
:0E3B8C0000000000000000000000000000002B
:043B9A0015E015E03D
:040000050800066188
:00000001FF
